{
  "contractName": "MarketPlace",
  "abi": [
    {
      "inputs": [
        {
          "internalType": "address",
          "name": "_escrow",
          "type": "address"
        }
      ],
      "stateMutability": "nonpayable",
      "type": "constructor"
    },
    {
      "anonymous": false,
      "inputs": [
        {
          "indexed": false,
          "internalType": "uint256",
          "name": "_price",
          "type": "uint256"
        },
        {
          "indexed": false,
          "internalType": "address",
          "name": "_currencyCode",
          "type": "address"
        },
        {
          "indexed": false,
          "internalType": "address",
          "name": "_idCollection",
          "type": "address"
        },
        {
          "indexed": false,
          "internalType": "uint256",
          "name": "_idNFT",
          "type": "uint256"
        },
        {
          "indexed": false,
          "internalType": "uint256",
          "name": "orderId",
          "type": "uint256"
        }
      ],
      "name": "AddedAsk",
      "type": "event"
    },
    {
      "anonymous": false,
      "inputs": [
        {
          "indexed": false,
          "internalType": "address",
          "name": "_idCollection",
          "type": "address"
        },
        {
          "indexed": false,
          "internalType": "uint256",
          "name": "_idNFT",
          "type": "uint256"
        },
        {
          "indexed": false,
          "internalType": "uint256",
          "name": "orderID",
          "type": "uint256"
        },
        {
          "indexed": false,
          "internalType": "uint256",
          "name": "orderPrice",
          "type": "uint256"
        }
      ],
      "name": "BoughtNFT",
      "type": "event"
    },
    {
      "anonymous": false,
      "inputs": [
        {
          "indexed": false,
          "internalType": "address",
          "name": "_idCollection",
          "type": "address"
        },
        {
          "indexed": false,
          "internalType": "uint256",
          "name": "_idNFT",
          "type": "uint256"
        },
        {
          "indexed": false,
          "internalType": "uint256",
          "name": "orderID",
          "type": "uint256"
        },
        {
          "indexed": false,
          "internalType": "uint256",
          "name": "orderPrice",
          "type": "uint256"
        }
      ],
      "name": "BoughtNFT4KSM",
      "type": "event"
    },
    {
      "anonymous": false,
      "inputs": [
        {
          "indexed": false,
          "internalType": "address",
          "name": "_idCollection",
          "type": "address"
        },
        {
          "indexed": false,
          "internalType": "uint256",
          "name": "_idNFT",
          "type": "uint256"
        },
        {
          "indexed": false,
          "internalType": "uint256",
          "name": "orderId",
          "type": "uint256"
        }
      ],
      "name": "CanceledAsk",
      "type": "event"
    },
    {
      "anonymous": false,
      "inputs": [
        {
          "indexed": false,
          "internalType": "uint256",
          "name": "_amount",
          "type": "uint256"
        },
        {
          "indexed": false,
          "internalType": "address",
          "name": "_sender",
          "type": "address"
        }
      ],
      "name": "DepositedKSM",
      "type": "event"
    },
    {
      "anonymous": false,
      "inputs": [
        {
          "indexed": false,
          "internalType": "uint256",
          "name": "_price",
          "type": "uint256"
        },
        {
          "indexed": false,
          "internalType": "address",
          "name": "_currencyCode",
          "type": "address"
        },
        {
          "indexed": false,
          "internalType": "address",
          "name": "_idCollection",
          "type": "address"
        },
        {
          "indexed": false,
          "internalType": "uint256",
          "name": "_idNFT",
          "type": "uint256"
        },
        {
          "indexed": false,
          "internalType": "uint8",
          "name": "_active",
          "type": "uint8"
        },
        {
          "indexed": false,
          "internalType": "uint256",
          "name": "orderId",
          "type": "uint256"
        }
      ],
      "name": "EditedAsk",
      "type": "event"
    },
    {
      "anonymous": false,
      "inputs": [
        {
          "indexed": false,
          "internalType": "uint256",
          "name": "_amount",
          "type": "uint256"
        },
        {
          "indexed": false,
          "internalType": "address",
          "name": "_currencyCode",
          "type": "address"
        },
        {
          "indexed": false,
          "internalType": "address",
          "name": "_sender",
          "type": "address"
        }
      ],
      "name": "Withdrawn",
      "type": "event"
    },
    {
      "anonymous": false,
      "inputs": [
        {
          "indexed": false,
          "internalType": "address",
          "name": "_sender",
          "type": "address"
        },
        {
          "indexed": false,
          "internalType": "uint256",
          "name": "balance",
          "type": "uint256"
        }
      ],
      "name": "WithdrawnAllKSM",
      "type": "event"
    },
    {
      "stateMutability": "payable",
      "type": "fallback",
      "payable": true
    },
    {
      "inputs": [
        {
          "internalType": "address",
          "name": "",
          "type": "address"
        },
        {
          "internalType": "uint256",
          "name": "",
          "type": "uint256"
        }
      ],
      "name": "asks",
      "outputs": [
        {
          "internalType": "uint256",
          "name": "",
          "type": "uint256"
        }
      ],
      "stateMutability": "view",
      "type": "function",
      "constant": true
    },
    {
      "inputs": [
        {
          "internalType": "address",
          "name": "",
          "type": "address"
        },
        {
          "internalType": "uint256",
          "name": "",
          "type": "uint256"
        }
      ],
      "name": "asksbySeller",
      "outputs": [
        {
          "internalType": "uint256",
          "name": "",
          "type": "uint256"
        }
      ],
      "stateMutability": "view",
      "type": "function",
      "constant": true
    },
    {
      "inputs": [
        {
          "internalType": "address",
          "name": "",
          "type": "address"
        }
      ],
      "name": "balanceKSM",
      "outputs": [
        {
          "internalType": "uint256",
          "name": "",
          "type": "uint256"
        }
      ],
      "stateMutability": "view",
      "type": "function",
      "constant": true
    },
    {
      "inputs": [
        {
          "internalType": "uint256",
          "name": "",
          "type": "uint256"
        }
      ],
      "name": "orders",
      "outputs": [
        {
          "internalType": "uint256",
          "name": "idNFT",
          "type": "uint256"
        },
        {
          "internalType": "address",
          "name": "currencyCode",
          "type": "address"
        },
        {
          "internalType": "uint256",
          "name": "price",
          "type": "uint256"
        },
        {
          "internalType": "uint256",
          "name": "time",
          "type": "uint256"
        },
        {
          "internalType": "address",
          "name": "idCollection",
          "type": "address"
        },
        {
          "internalType": "address",
          "name": "ownerAddr",
          "type": "address"
        },
        {
          "internalType": "uint8",
          "name": "flagActive",
          "type": "uint8"
        },
        {
          "internalType": "string",
          "name": "name",
          "type": "string"
        },
        {
          "internalType": "string",
          "name": "symbol",
          "type": "string"
        },
        {
          "internalType": "string",
          "name": "tokenURI",
          "type": "string"
        }
      ],
      "stateMutability": "view",
      "type": "function",
      "constant": true
    },
    {
      "stateMutability": "payable",
      "type": "receive",
      "payable": true
    },
    {
      "inputs": [
        {
          "internalType": "address",
          "name": "_newEscrow",
          "type": "address"
        }
      ],
      "name": "setowner",
      "outputs": [],
      "stateMutability": "nonpayable",
      "type": "function"
    },
    {
      "inputs": [
        {
          "internalType": "address",
          "name": "_newEscrow",
          "type": "address"
        }
      ],
      "name": "setEscrow",
      "outputs": [],
      "stateMutability": "nonpayable",
      "type": "function"
    },
    {
      "inputs": [
        {
          "internalType": "address",
          "name": "_coin",
          "type": "address"
        }
      ],
      "name": "setNativeCoin",
      "outputs": [],
      "stateMutability": "nonpayable",
      "type": "function"
    },
    {
      "inputs": [
        {
          "internalType": "uint256",
          "name": "_price",
          "type": "uint256"
        },
        {
          "internalType": "address",
          "name": "_currencyCode",
          "type": "address"
        },
        {
          "internalType": "address",
          "name": "_idCollection",
          "type": "address"
        },
        {
          "internalType": "uint256",
          "name": "_idNFT",
          "type": "uint256"
        }
      ],
      "name": "addAsk",
      "outputs": [],
      "stateMutability": "nonpayable",
      "type": "function"
    },
    {
      "inputs": [
        {
          "internalType": "uint256",
          "name": "_price",
          "type": "uint256"
        },
        {
          "internalType": "address",
          "name": "_currencyCode",
          "type": "address"
        },
        {
          "internalType": "address",
          "name": "_idCollection",
          "type": "address"
        },
        {
          "internalType": "uint256",
          "name": "_idNFT",
          "type": "uint256"
        },
        {
          "internalType": "uint8",
          "name": "_active",
          "type": "uint8"
        }
      ],
      "name": "editAsk",
      "outputs": [],
      "stateMutability": "nonpayable",
      "type": "function"
    },
    {
      "inputs": [
        {
          "internalType": "address",
          "name": "_idCollection",
          "type": "address"
        },
        {
          "internalType": "uint256",
          "name": "_idNFT",
          "type": "uint256"
        }
      ],
      "name": "cancelAsk",
      "outputs": [],
      "stateMutability": "nonpayable",
      "type": "function"
    },
    {
      "inputs": [
        {
          "internalType": "uint256",
          "name": "_amount",
          "type": "uint256"
        },
        {
          "internalType": "address",
          "name": "_sender",
          "type": "address"
        }
      ],
      "name": "depositKSM",
      "outputs": [],
      "stateMutability": "nonpayable",
      "type": "function"
    },
    {
      "inputs": [
        {
          "internalType": "address",
          "name": "_idCollection",
          "type": "address"
        },
        {
          "internalType": "uint256",
          "name": "_idNFT",
          "type": "uint256"
        },
        {
          "internalType": "address",
          "name": "_buyer",
          "type": "address"
        },
        {
          "internalType": "address",
          "name": "_receiver",
          "type": "address"
        }
      ],
      "name": "buyKSM",
      "outputs": [],
      "stateMutability": "nonpayable",
      "type": "function"
    },
    {
      "inputs": [
        {
          "internalType": "address",
          "name": "_idCollection",
          "type": "address"
        },
        {
          "internalType": "uint256",
          "name": "_idNFT",
          "type": "uint256"
        }
      ],
      "name": "buy",
      "outputs": [
        {
          "internalType": "bool",
          "name": "result",
          "type": "bool"
        }
      ],
      "stateMutability": "payable",
      "type": "function",
      "payable": true
    },
    {
      "inputs": [
        {
          "internalType": "address",
          "name": "_sender",
          "type": "address"
        }
      ],
      "name": "withdrawAllKSM",
      "outputs": [
        {
          "internalType": "uint256",
          "name": "lastBalance",
          "type": "uint256"
        }
      ],
      "stateMutability": "nonpayable",
      "type": "function"
    },
    {
      "inputs": [
        {
          "internalType": "uint256",
          "name": "_amount",
          "type": "uint256"
        },
        {
          "internalType": "address",
          "name": "_currencyCode",
          "type": "address"
        },
        {
          "internalType": "address payable",
          "name": "_sender",
          "type": "address"
        }
      ],
      "name": "withdraw",
      "outputs": [
        {
          "internalType": "bool",
          "name": "result",
          "type": "bool"
        }
      ],
      "stateMutability": "nonpayable",
      "type": "function"
    },
    {
      "inputs": [
        {
          "internalType": "address",
          "name": "_idCollection",
          "type": "address"
        },
        {
          "internalType": "uint256",
          "name": "_idNFT",
          "type": "uint256"
        }
      ],
      "name": "getOrder",
      "outputs": [
        {
          "components": [
            {
              "internalType": "uint256",
              "name": "idNFT",
              "type": "uint256"
            },
            {
              "internalType": "address",
              "name": "currencyCode",
              "type": "address"
            },
            {
              "internalType": "uint256",
              "name": "price",
              "type": "uint256"
            },
            {
              "internalType": "uint256",
              "name": "time",
              "type": "uint256"
            },
            {
              "internalType": "address",
              "name": "idCollection",
              "type": "address"
            },
            {
              "internalType": "address",
              "name": "ownerAddr",
              "type": "address"
            },
            {
              "internalType": "uint8",
              "name": "flagActive",
              "type": "uint8"
            },
            {
              "internalType": "string",
              "name": "name",
              "type": "string"
            },
            {
              "internalType": "string",
              "name": "symbol",
              "type": "string"
            },
            {
              "internalType": "string",
              "name": "tokenURI",
              "type": "string"
            }
          ],
          "internalType": "struct MarketPlace.Order",
          "name": "",
          "type": "tuple"
        }
      ],
      "stateMutability": "view",
      "type": "function",
      "constant": true
    },
    {
      "inputs": [],
      "name": "getOrdersLen",
      "outputs": [
        {
          "internalType": "uint256",
          "name": "",
          "type": "uint256"
        }
      ],
      "stateMutability": "view",
      "type": "function",
      "constant": true
    },
    {
      "inputs": [
        {
          "internalType": "address",
          "name": "operator",
          "type": "address"
        },
        {
          "internalType": "address",
          "name": "from",
          "type": "address"
        },
        {
          "internalType": "uint256",
          "name": "tokenId",
          "type": "uint256"
        },
        {
          "internalType": "bytes",
          "name": "data",
          "type": "bytes"
        }
      ],
      "name": "onERC721Received",
      "outputs": [
        {
          "internalType": "bytes4",
          "name": "",
          "type": "bytes4"
        }
      ],
      "stateMutability": "pure",
      "type": "function",
      "constant": true
    }
  ],
  "bytecode": "0x60806040523480156200001157600080fd5b50604051620046e6380380620046e68339818101604052810190620000379190620003e6565b80600560006101000a81548173ffffffffffffffffffffffffffffffffffffffff021916908373ffffffffffffffffffffffffffffffffffffffff16021790555033600660006101000a81548173ffffffffffffffffffffffffffffffffffffffff021916908373ffffffffffffffffffffffffffffffffffffffff160217905550600060405180610140016040528060008152602001600073ffffffffffffffffffffffffffffffffffffffff1681526020016000815260200160008152602001600073ffffffffffffffffffffffffffffffffffffffff168152602001600073ffffffffffffffffffffffffffffffffffffffff168152602001600060ff1681526020016040518060200160405280600081525081526020016040518060200160405280600081525081526020016040518060200160405280600081525081525090806001815401808255809150506001900390600052602060002090600902016000909190919091506000820151816000015560208201518160010160006101000a81548173ffffffffffffffffffffffffffffffffffffffff021916908373ffffffffffffffffffffffffffffffffffffffff160217905550604082015181600201556060820151816003015560808201518160040160006101000a81548173ffffffffffffffffffffffffffffffffffffffff021916908373ffffffffffffffffffffffffffffffffffffffff16021790555060a08201518160050160006101000a81548173ffffffffffffffffffffffffffffffffffffffff021916908373ffffffffffffffffffffffffffffffffffffffff16021790555060c08201518160050160146101000a81548160ff021916908360ff16021790555060e0820151816006019080519060200190620002d59291906200031f565b50610100820151816007019080519060200190620002f59291906200031f565b50610120820151816008019080519060200190620003159291906200031f565b50505050620004c5565b8280546200032d9062000446565b90600052602060002090601f0160209004810192826200035157600085556200039d565b82601f106200036c57805160ff19168380011785556200039d565b828001600101855582156200039d579182015b828111156200039c5782518255916020019190600101906200037f565b5b509050620003ac9190620003b0565b5090565b5b80821115620003cb576000816000905550600101620003b1565b5090565b600081519050620003e081620004ab565b92915050565b600060208284031215620003f957600080fd5b60006200040984828501620003cf565b91505092915050565b60006200041f8262000426565b9050919050565b600073ffffffffffffffffffffffffffffffffffffffff82169050919050565b600060028204905060018216806200045f57607f821691505b602082108114156200047657620004756200047c565b5b50919050565b7f4e487b7100000000000000000000000000000000000000000000000000000000600052602260045260246000fd5b620004b68162000412565b8114620004c257600080fd5b50565b61421180620004d56000396000f3fe60806040526004361061010d5760003560e01c806399f2d4eb11610095578063c10c354611610064578063c10c354614610420578063cce7ec1314610449578063e22d4f7d14610479578063edb25841146104b6578063fd8868c7146104f35761014d565b806399f2d4eb14610323578063a85c38ef14610360578063b460af94146103a6578063b4c3e8ea146103e35761014d565b8063592bd705116100dc578063592bd705146102405780636b084b2514610269578063791bd866146102925780638c088f00146102bb57806393cdd334146102e65761014d565b8063150b7a021461018857806337c4eb58146101c55780633ce61756146101ee57806340b80746146102175761014d565b3661014d576040517f08c379a0000000000000000000000000000000000000000000000000000000008152600401610144906139d3565b60405180910390fd5b6040517f08c379a000000000000000000000000000000000000000000000000000000000815260040161017f90613a33565b60405180910390fd5b34801561019457600080fd5b506101af60048036038101906101aa91906131a3565b61051c565b6040516101bc91906138f6565b60405180910390f35b3480156101d157600080fd5b506101ec60048036038101906101e791906133e0565b61054a565b005b3480156101fa57600080fd5b5061021560048036038101906102109190613151565b610bd9565b005b34801561022357600080fd5b5061023e60048036038101906102399190613223565b610cad565b005b34801561024c57600080fd5b5061026760048036038101906102629190613151565b611047565b005b34801561027557600080fd5b50610290600480360381019061028b9190613443565b61111b565b005b34801561029e57600080fd5b506102b960048036038101906102b49190613355565b6114fd565b005b3480156102c757600080fd5b506102d061165f565b6040516102dd9190613a75565b60405180910390f35b3480156102f257600080fd5b5061030d60048036038101906103089190613151565b61166b565b60405161031a9190613a75565b60405180910390f35b34801561032f57600080fd5b5061034a60048036038101906103459190613223565b6117c2565b6040516103579190613a75565b60405180910390f35b34801561036c57600080fd5b506103876004803603810190610382919061332c565b6117f3565b60405161039d9a99989796959493929190613ba4565b60405180910390f35b3480156103b257600080fd5b506103cd60048036038101906103c89190613391565b611a5c565b6040516103da91906138db565b60405180910390f35b3480156103ef57600080fd5b5061040a60048036038101906104059190613151565b611c50565b6040516104179190613a75565b60405180910390f35b34801561042c57600080fd5b5061044760048036038101906104429190613151565b611c68565b005b610463600480360381019061045e9190613223565b611d3c565b60405161047091906138db565b60405180910390f35b34801561048557600080fd5b506104a0600480360381019061049b9190613223565b612318565b6040516104ad9190613a75565b60405180910390f35b3480156104c257600080fd5b506104dd60048036038101906104d89190613223565b61233d565b6040516104ea9190613a53565b60405180910390f35b3480156104ff57600080fd5b5061051a6004803603810190610515919061325f565b6126ef565b005b60007f150b7a023d4804d13e8c85fb27262cb750cf6ba9f9dd3bb30d90f482ceeb4b1f905095945050505050565b60008273ffffffffffffffffffffffffffffffffffffffff16636352211e836040518263ffffffff1660e01b81526004016105859190613a75565b60206040518083038186803b15801561059d57600080fd5b505afa1580156105b1573d6000803e3d6000fd5b505050506040513d601f19601f820116820180604052508101906105d5919061317a565b90503373ffffffffffffffffffffffffffffffffffffffff168173ffffffffffffffffffffffffffffffffffffffff1614610645576040517f08c379a000000000000000000000000000000000000000000000000000000000815260040161063c90613993565b60405180910390fd5b60608060608573ffffffffffffffffffffffffffffffffffffffff166306fdde036040518163ffffffff1660e01b815260040160006040518083038186803b15801561069057600080fd5b505afa9250505080156106c657506040513d6000823e3d601f19601f820116820180604052508101906106c391906132eb565b60015b6106e1576040518060200160405280600081525092506106e6565b809350505b8573ffffffffffffffffffffffffffffffffffffffff166395d89b416040518163ffffffff1660e01b815260040160006040518083038186803b15801561072c57600080fd5b505afa92505050801561076257506040513d6000823e3d601f19601f8201168201806040525081019061075f91906132eb565b60015b61077d57604051806020016040528060008152509150610782565b809250505b8573ffffffffffffffffffffffffffffffffffffffff1663c87b56dd866040518263ffffffff1660e01b81526004016107bb9190613a75565b60006040518083038186803b1580156107d357600080fd5b505afa92505050801561080957506040513d6000823e3d601f19601f8201168201806040525081019061080691906132eb565b60015b61082457604051806020016040528060008152509050610829565b809150505b60006040518061014001604052808781526020018973ffffffffffffffffffffffffffffffffffffffff1681526020018a81526020014281526020018873ffffffffffffffffffffffffffffffffffffffff1681526020013373ffffffffffffffffffffffffffffffffffffffff168152602001600160ff1681526020018581526020018481526020018381525090806001815401808255809150506001900390600052602060002090600902016000909190919091506000820151816000015560208201518160010160006101000a81548173ffffffffffffffffffffffffffffffffffffffff021916908373ffffffffffffffffffffffffffffffffffffffff160217905550604082015181600201556060820151816003015560808201518160040160006101000a81548173ffffffffffffffffffffffffffffffffffffffff021916908373ffffffffffffffffffffffffffffffffffffffff16021790555060a08201518160050160006101000a81548173ffffffffffffffffffffffffffffffffffffffff021916908373ffffffffffffffffffffffffffffffffffffffff16021790555060c08201518160050160146101000a81548160ff021916908360ff16021790555060e0820151816006019080519060200190610a10929190612ee6565b50610100820151816007019080519060200190610a2e929190612ee6565b50610120820151816008019080519060200190610a4c929190612ee6565b50505060006001600080549050610a639190613d2e565b905080600360008973ffffffffffffffffffffffffffffffffffffffff1673ffffffffffffffffffffffffffffffffffffffff168152602001908152602001600020600088815260200190815260200160002081905550600460003373ffffffffffffffffffffffffffffffffffffffff1673ffffffffffffffffffffffffffffffffffffffff1681526020019081526020016000208190806001815401808255809150506001900390600052602060002001600090919091909150558673ffffffffffffffffffffffffffffffffffffffff166323b872dd3330896040518463ffffffff1660e01b8152600401610b5d939291906137ff565b600060405180830381600087803b158015610b7757600080fd5b505af1158015610b8b573d6000803e3d6000fd5b505050507f83b3a8754d705365b581ab63c329c1e55255a22aa78c67b5fcef378bfb2d9b998989898985604051610bc6959493929190613af0565b60405180910390a1505050505050505050565b600660009054906101000a900473ffffffffffffffffffffffffffffffffffffffff1673ffffffffffffffffffffffffffffffffffffffff163373ffffffffffffffffffffffffffffffffffffffff1614610c69576040517f08c379a0000000000000000000000000000000000000000000000000000000008152600401610c6090613a13565b60405180910390fd5b80600760006101000a81548173ffffffffffffffffffffffffffffffffffffffff021916908373ffffffffffffffffffffffffffffffffffffffff16021790555050565b6000600360008473ffffffffffffffffffffffffffffffffffffffff1673ffffffffffffffffffffffffffffffffffffffff16815260200190815260200160002060008381526020019081526020016000205490503373ffffffffffffffffffffffffffffffffffffffff1660008281548110610d53577f4e487b7100000000000000000000000000000000000000000000000000000000600052603260045260246000fd5b906000526020600020906009020160050160009054906101000a900473ffffffffffffffffffffffffffffffffffffffff1673ffffffffffffffffffffffffffffffffffffffff1614610ddb576040517f08c379a0000000000000000000000000000000000000000000000000000000008152600401610dd290613973565b60405180910390fd5b6000808281548110610e16577f4e487b7100000000000000000000000000000000000000000000000000000000600052603260045260246000fd5b906000526020600020906009020160050160149054906101000a900460ff1660ff161415610e79576040517f08c379a0000000000000000000000000000000000000000000000000000000008152600401610e7090613933565b60405180910390fd5b4260008281548110610eb4577f4e487b7100000000000000000000000000000000000000000000000000000000600052603260045260246000fd5b9060005260206000209060090201600301819055506000808281548110610f04577f4e487b7100000000000000000000000000000000000000000000000000000000600052603260045260246000fd5b906000526020600020906009020160050160146101000a81548160ff021916908360ff1602179055508273ffffffffffffffffffffffffffffffffffffffff166323b872dd3060008481548110610f84577f4e487b7100000000000000000000000000000000000000000000000000000000600052603260045260246000fd5b906000526020600020906009020160050160009054906101000a900473ffffffffffffffffffffffffffffffffffffffff16856040518463ffffffff1660e01b8152600401610fd5939291906137ff565b600060405180830381600087803b158015610fef57600080fd5b505af1158015611003573d6000803e3d6000fd5b505050507f6330f58b476cc7f9dd8db8130a0fbb49b291ebc32531eb36e9646f56ee20174b83838360405161103a9392919061385f565b60405180910390a1505050565b600660009054906101000a900473ffffffffffffffffffffffffffffffffffffffff1673ffffffffffffffffffffffffffffffffffffffff163373ffffffffffffffffffffffffffffffffffffffff16146110d7576040517f08c379a00000000000000000000000000000000000000000000000000000000081526004016110ce90613a13565b60405180910390fd5b80600560006101000a81548173ffffffffffffffffffffffffffffffffffffffff021916908373ffffffffffffffffffffffffffffffffffffffff16021790555050565b6000600360008573ffffffffffffffffffffffffffffffffffffffff1673ffffffffffffffffffffffffffffffffffffffff16815260200190815260200160002060008481526020019081526020016000205490503373ffffffffffffffffffffffffffffffffffffffff16600082815481106111c1577f4e487b7100000000000000000000000000000000000000000000000000000000600052603260045260246000fd5b906000526020600020906009020160050160009054906101000a900473ffffffffffffffffffffffffffffffffffffffff1673ffffffffffffffffffffffffffffffffffffffff1614611249576040517f08c379a000000000000000000000000000000000000000000000000000000000815260040161124090613973565b60405180910390fd5b6000808281548110611284577f4e487b7100000000000000000000000000000000000000000000000000000000600052603260045260246000fd5b906000526020600020906009020160050160149054906101000a900460ff1660ff1614156112e7576040517f08c379a00000000000000000000000000000000000000000000000000000000081526004016112de90613933565b60405180910390fd5b600086111561134157856000828154811061132b577f4e487b7100000000000000000000000000000000000000000000000000000000600052603260045260246000fd5b9060005260206000209060090201600201819055505b600073ffffffffffffffffffffffffffffffffffffffff168573ffffffffffffffffffffffffffffffffffffffff16146114005784600082815481106113b0577f4e487b7100000000000000000000000000000000000000000000000000000000600052603260045260246000fd5b906000526020600020906009020160010160006101000a81548173ffffffffffffffffffffffffffffffffffffffff021916908373ffffffffffffffffffffffffffffffffffffffff1602179055505b426000828154811061143b577f4e487b7100000000000000000000000000000000000000000000000000000000600052603260045260246000fd5b906000526020600020906009020160030181905550816000828154811061148b577f4e487b7100000000000000000000000000000000000000000000000000000000600052603260045260246000fd5b906000526020600020906009020160050160146101000a81548160ff021916908360ff1602179055507f04211d838289b72af597bf28a4ccff5a30d6056f5fce2eddb127ab4ffea0963d8686868686866040516114ed96959493929190613b43565b60405180910390a1505050505050565b600560009054906101000a900473ffffffffffffffffffffffffffffffffffffffff1673ffffffffffffffffffffffffffffffffffffffff163373ffffffffffffffffffffffffffffffffffffffff161461158d576040517f08c379a000000000000000000000000000000000000000000000000000000000815260040161158490613953565b60405180910390fd5b6115df82600260008473ffffffffffffffffffffffffffffffffffffffff1673ffffffffffffffffffffffffffffffffffffffff16815260200190815260200160002054612e7b90919063ffffffff16565b600260008373ffffffffffffffffffffffffffffffffffffffff1673ffffffffffffffffffffffffffffffffffffffff168152602001908152602001600020819055507f291ce0b690061cb1b3f1111bf6500efe526983251fb0f863251ec3670d035fc48282604051611653929190613a90565b60405180910390a15050565b60008080549050905090565b6000600560009054906101000a900473ffffffffffffffffffffffffffffffffffffffff1673ffffffffffffffffffffffffffffffffffffffff163373ffffffffffffffffffffffffffffffffffffffff16146116fd576040517f08c379a00000000000000000000000000000000000000000000000000000000081526004016116f490613953565b60405180910390fd5b600260008373ffffffffffffffffffffffffffffffffffffffff1673ffffffffffffffffffffffffffffffffffffffff1681526020019081526020016000205490506000600260008473ffffffffffffffffffffffffffffffffffffffff1673ffffffffffffffffffffffffffffffffffffffff168152602001908152602001600020819055507f027aeacbc6fbfa7fe735ff8f14a600469ad1a3197ce1c8c8a159641cf68fe59282826040516117b5929190613836565b60405180910390a1919050565b600460205281600052604060002081815481106117de57600080fd5b90600052602060002001600091509150505481565b6000818154811061180357600080fd5b90600052602060002090600902016000915090508060000154908060010160009054906101000a900473ffffffffffffffffffffffffffffffffffffffff16908060020154908060030154908060040160009054906101000a900473ffffffffffffffffffffffffffffffffffffffff16908060050160009054906101000a900473ffffffffffffffffffffffffffffffffffffffff16908060050160149054906101000a900460ff16908060060180546118bd90613e5e565b80601f01602080910402602001604051908101604052809291908181526020018280546118e990613e5e565b80156119365780601f1061190b57610100808354040283529160200191611936565b820191906000526020600020905b81548152906001019060200180831161191957829003601f168201915b50505050509080600701805461194b90613e5e565b80601f016020809104026020016040519081016040528092919081815260200182805461197790613e5e565b80156119c45780601f10611999576101008083540402835291602001916119c4565b820191906000526020600020905b8154815290600101906020018083116119a757829003601f168201915b5050505050908060080180546119d990613e5e565b80601f0160208091040260200160405190810160405280929190818152602001828054611a0590613e5e565b8015611a525780601f10611a2757610100808354040283529160200191611a52565b820191906000526020600020905b815481529060010190602001808311611a3557829003601f168201915b505050505090508a565b6000600660009054906101000a900473ffffffffffffffffffffffffffffffffffffffff1673ffffffffffffffffffffffffffffffffffffffff163373ffffffffffffffffffffffffffffffffffffffff1614611aee576040517f08c379a0000000000000000000000000000000000000000000000000000000008152600401611ae590613a13565b60405180910390fd5b600760009054906101000a900473ffffffffffffffffffffffffffffffffffffffff1673ffffffffffffffffffffffffffffffffffffffff168373ffffffffffffffffffffffffffffffffffffffff1614611bd6578273ffffffffffffffffffffffffffffffffffffffff1663a9059cbb83866040518363ffffffff1660e01b8152600401611b7e9291906137d6565b602060405180830381600087803b158015611b9857600080fd5b505af1158015611bac573d6000803e3d6000fd5b505050506040513d601f19601f82011682018060405250810190611bd091906132c2565b50611c0e565b8173ffffffffffffffffffffffffffffffffffffffff166108fc859081150290604051600060405180830381858888f1935050505090505b7fb524bace85e4ce0f8da306e32f39263c5724780ca00b7551c051c8e3dc36adaf848484604051611c4193929190613ab9565b60405180910390a19392505050565b60026020528060005260406000206000915090505481565b600660009054906101000a900473ffffffffffffffffffffffffffffffffffffffff1673ffffffffffffffffffffffffffffffffffffffff163373ffffffffffffffffffffffffffffffffffffffff1614611cf8576040517f08c379a0000000000000000000000000000000000000000000000000000000008152600401611cef90613a13565b60405180910390fd5b80600560006101000a81548173ffffffffffffffffffffffffffffffffffffffff021916908373ffffffffffffffffffffffffffffffffffffffff16021790555050565b6000806000600360008673ffffffffffffffffffffffffffffffffffffffff1673ffffffffffffffffffffffffffffffffffffffff16815260200190815260200160002060008581526020019081526020016000205481548110611dc9577f4e487b7100000000000000000000000000000000000000000000000000000000600052603260045260246000fd5b906000526020600020906009020160405180610140016040529081600082015481526020016001820160009054906101000a900473ffffffffffffffffffffffffffffffffffffffff1673ffffffffffffffffffffffffffffffffffffffff1673ffffffffffffffffffffffffffffffffffffffff16815260200160028201548152602001600382015481526020016004820160009054906101000a900473ffffffffffffffffffffffffffffffffffffffff1673ffffffffffffffffffffffffffffffffffffffff1673ffffffffffffffffffffffffffffffffffffffff1681526020016005820160009054906101000a900473ffffffffffffffffffffffffffffffffffffffff1673ffffffffffffffffffffffffffffffffffffffff1673ffffffffffffffffffffffffffffffffffffffff1681526020016005820160149054906101000a900460ff1660ff1660ff168152602001600682018054611f3090613e5e565b80601f0160208091040260200160405190810160405280929190818152602001828054611f5c90613e5e565b8015611fa95780601f10611f7e57610100808354040283529160200191611fa9565b820191906000526020600020905b815481529060010190602001808311611f8c57829003601f168201915b50505050508152602001600782018054611fc290613e5e565b80601f0160208091040260200160405190810160405280929190818152602001828054611fee90613e5e565b801561203b5780601f106120105761010080835404028352916020019161203b565b820191906000526020600020905b81548152906001019060200180831161201e57829003601f168201915b5050505050815260200160088201805461205490613e5e565b80601f016020809104026020016040519081016040528092919081815260200182805461208090613e5e565b80156120cd5780601f106120a2576101008083540402835291602001916120cd565b820191906000526020600020905b8154815290600101906020018083116120b057829003601f168201915b50505050508152505090508060400151341461211e576040517f08c379a0000000000000000000000000000000000000000000000000000000008152600401612115906139f3565b60405180910390fd5b600080600360008773ffffffffffffffffffffffffffffffffffffffff1673ffffffffffffffffffffffffffffffffffffffff168152602001908152602001600020600086815260200190815260200160002054815481106121a9577f4e487b7100000000000000000000000000000000000000000000000000000000600052603260045260246000fd5b906000526020600020906009020160050160146101000a81548160ff021916908360ff1602179055508373ffffffffffffffffffffffffffffffffffffffff166323b872dd3033866040518463ffffffff1660e01b815260040161220f939291906137ff565b600060405180830381600087803b15801561222957600080fd5b505af115801561223d573d6000803e3d6000fd5b505050508060a0015173ffffffffffffffffffffffffffffffffffffffff166108fc82604001519081150290604051600060405180830381858888f1935050505091507fc220cf2a12d6492e23ed1141c55018997799699d009b00ebd5a4874c60f5c31e8484600360008873ffffffffffffffffffffffffffffffffffffffff1673ffffffffffffffffffffffffffffffffffffffff16815260200190815260200160002060008781526020019081526020016000205484604001516040516123099493929190613896565b60405180910390a15092915050565b6003602052816000526040600020602052806000526040600020600091509150505481565b612345612f6c565b6000600360008573ffffffffffffffffffffffffffffffffffffffff1673ffffffffffffffffffffffffffffffffffffffff168152602001908152602001600020600084815260200190815260200160002054905060008082815481106123d5577f4e487b7100000000000000000000000000000000000000000000000000000000600052603260045260246000fd5b906000526020600020906009020160405180610140016040529081600082015481526020016001820160009054906101000a900473ffffffffffffffffffffffffffffffffffffffff1673ffffffffffffffffffffffffffffffffffffffff1673ffffffffffffffffffffffffffffffffffffffff16815260200160028201548152602001600382015481526020016004820160009054906101000a900473ffffffffffffffffffffffffffffffffffffffff1673ffffffffffffffffffffffffffffffffffffffff1673ffffffffffffffffffffffffffffffffffffffff1681526020016005820160009054906101000a900473ffffffffffffffffffffffffffffffffffffffff1673ffffffffffffffffffffffffffffffffffffffff1673ffffffffffffffffffffffffffffffffffffffff1681526020016005820160149054906101000a900460ff1660ff1660ff16815260200160068201805461253c90613e5e565b80601f016020809104026020016040519081016040528092919081815260200182805461256890613e5e565b80156125b55780601f1061258a576101008083540402835291602001916125b5565b820191906000526020600020905b81548152906001019060200180831161259857829003601f168201915b505050505081526020016007820180546125ce90613e5e565b80601f01602080910402602001604051908101604052809291908181526020018280546125fa90613e5e565b80156126475780601f1061261c57610100808354040283529160200191612647565b820191906000526020600020905b81548152906001019060200180831161262a57829003601f168201915b5050505050815260200160088201805461266090613e5e565b80601f016020809104026020016040519081016040528092919081815260200182805461268c90613e5e565b80156126d95780601f106126ae576101008083540402835291602001916126d9565b820191906000526020600020905b8154815290600101906020018083116126bc57829003601f168201915b5050505050815250509050809250505092915050565b600080600360008773ffffffffffffffffffffffffffffffffffffffff1673ffffffffffffffffffffffffffffffffffffffff1681526020019081526020016000206000868152602001908152602001600020548154811061277a577f4e487b7100000000000000000000000000000000000000000000000000000000600052603260045260246000fd5b906000526020600020906009020160405180610140016040529081600082015481526020016001820160009054906101000a900473ffffffffffffffffffffffffffffffffffffffff1673ffffffffffffffffffffffffffffffffffffffff1673ffffffffffffffffffffffffffffffffffffffff16815260200160028201548152602001600382015481526020016004820160009054906101000a900473ffffffffffffffffffffffffffffffffffffffff1673ffffffffffffffffffffffffffffffffffffffff1673ffffffffffffffffffffffffffffffffffffffff1681526020016005820160009054906101000a900473ffffffffffffffffffffffffffffffffffffffff1673ffffffffffffffffffffffffffffffffffffffff1673ffffffffffffffffffffffffffffffffffffffff1681526020016005820160149054906101000a900460ff1660ff1660ff1681526020016006820180546128e190613e5e565b80601f016020809104026020016040519081016040528092919081815260200182805461290d90613e5e565b801561295a5780601f1061292f5761010080835404028352916020019161295a565b820191906000526020600020905b81548152906001019060200180831161293d57829003601f168201915b5050505050815260200160078201805461297390613e5e565b80601f016020809104026020016040519081016040528092919081815260200182805461299f90613e5e565b80156129ec5780601f106129c1576101008083540402835291602001916129ec565b820191906000526020600020905b8154815290600101906020018083116129cf57829003601f168201915b50505050508152602001600882018054612a0590613e5e565b80601f0160208091040260200160405190810160405280929190818152602001828054612a3190613e5e565b8015612a7e5780601f10612a5357610100808354040283529160200191612a7e565b820191906000526020600020905b815481529060010190602001808311612a6157829003601f168201915b5050505050815250509050600560009054906101000a900473ffffffffffffffffffffffffffffffffffffffff1673ffffffffffffffffffffffffffffffffffffffff163373ffffffffffffffffffffffffffffffffffffffff161480612b1057508273ffffffffffffffffffffffffffffffffffffffff163373ffffffffffffffffffffffffffffffffffffffff16145b612b4f576040517f08c379a0000000000000000000000000000000000000000000000000000000008152600401612b46906139b3565b60405180910390fd5b612bdc81604001516040518060400160405280601981526020017f496e737563636966696369656e74204b534d732066756e647300000000000000815250600260008773ffffffffffffffffffffffffffffffffffffffff1673ffffffffffffffffffffffffffffffffffffffff16815260200190815260200160002054612e919092919063ffffffff16565b600260008573ffffffffffffffffffffffffffffffffffffffff1673ffffffffffffffffffffffffffffffffffffffff16815260200190815260200160002081905550612c798160400151600260008460a0015173ffffffffffffffffffffffffffffffffffffffff1673ffffffffffffffffffffffffffffffffffffffff16815260200190815260200160002054612e7b90919063ffffffff16565b600260008360a0015173ffffffffffffffffffffffffffffffffffffffff1673ffffffffffffffffffffffffffffffffffffffff16815260200190815260200160002081905550600080600360008873ffffffffffffffffffffffffffffffffffffffff1673ffffffffffffffffffffffffffffffffffffffff16815260200190815260200160002060008781526020019081526020016000205481548110612d4b577f4e487b7100000000000000000000000000000000000000000000000000000000600052603260045260246000fd5b906000526020600020906009020160050160146101000a81548160ff021916908360ff1602179055508473ffffffffffffffffffffffffffffffffffffffff166323b872dd3084876040518463ffffffff1660e01b8152600401612db1939291906137ff565b600060405180830381600087803b158015612dcb57600080fd5b505af1158015612ddf573d6000803e3d6000fd5b505050507f68bdd3548f3f05742b376651745ca73472eb18f2230f64b893d7a48e575eb0148585600360008973ffffffffffffffffffffffffffffffffffffffff1673ffffffffffffffffffffffffffffffffffffffff1681526020019081526020016000206000888152602001908152602001600020548460400151604051612e6c9493929190613896565b60405180910390a15050505050565b60008183612e899190613cd8565b905092915050565b6000838311158290612ed9576040517f08c379a0000000000000000000000000000000000000000000000000000000008152600401612ed09190613911565b60405180910390fd5b5082840390509392505050565b828054612ef290613e5e565b90600052602060002090601f016020900481019282612f145760008555612f5b565b82601f10612f2d57805160ff1916838001178555612f5b565b82800160010185558215612f5b579182015b82811115612f5a578251825591602001919060010190612f3f565b5b509050612f689190613004565b5090565b60405180610140016040528060008152602001600073ffffffffffffffffffffffffffffffffffffffff1681526020016000815260200160008152602001600073ffffffffffffffffffffffffffffffffffffffff168152602001600073ffffffffffffffffffffffffffffffffffffffff168152602001600060ff1681526020016060815260200160608152602001606081525090565b5b8082111561301d576000816000905550600101613005565b5090565b600061303461302f84613c7a565b613c55565b90508281526020810184848401111561304c57600080fd5b613057848285613e2b565b509392505050565b60008135905061306e81614168565b92915050565b60008151905061308381614168565b92915050565b6000813590506130988161417f565b92915050565b6000815190506130ad81614196565b92915050565b60008083601f8401126130c557600080fd5b8235905067ffffffffffffffff8111156130de57600080fd5b6020830191508360018202830111156130f657600080fd5b9250929050565b600082601f83011261310e57600080fd5b815161311e848260208601613021565b91505092915050565b600081359050613136816141ad565b92915050565b60008135905061314b816141c4565b92915050565b60006020828403121561316357600080fd5b60006131718482850161305f565b91505092915050565b60006020828403121561318c57600080fd5b600061319a84828501613074565b91505092915050565b6000806000806000608086880312156131bb57600080fd5b60006131c98882890161305f565b95505060206131da8882890161305f565b94505060406131eb88828901613127565b935050606086013567ffffffffffffffff81111561320857600080fd5b613214888289016130b3565b92509250509295509295909350565b6000806040838503121561323657600080fd5b60006132448582860161305f565b925050602061325585828601613127565b9150509250929050565b6000806000806080858703121561327557600080fd5b60006132838782880161305f565b945050602061329487828801613127565b93505060406132a58782880161305f565b92505060606132b68782880161305f565b91505092959194509250565b6000602082840312156132d457600080fd5b60006132e28482850161309e565b91505092915050565b6000602082840312156132fd57600080fd5b600082015167ffffffffffffffff81111561331757600080fd5b613323848285016130fd565b91505092915050565b60006020828403121561333e57600080fd5b600061334c84828501613127565b91505092915050565b6000806040838503121561336857600080fd5b600061337685828601613127565b92505060206133878582860161305f565b9150509250929050565b6000806000606084860312156133a657600080fd5b60006133b486828701613127565b93505060206133c58682870161305f565b92505060406133d686828701613089565b9150509250925092565b600080600080608085870312156133f657600080fd5b600061340487828801613127565b94505060206134158782880161305f565b93505060406134268782880161305f565b925050606061343787828801613127565b91505092959194509250565b600080600080600060a0868803121561345b57600080fd5b600061346988828901613127565b955050602061347a8882890161305f565b945050604061348b8882890161305f565b935050606061349c88828901613127565b92505060806134ad8882890161313c565b9150509295509295909350565b6134c381613df5565b82525050565b6134d281613d62565b82525050565b6134e181613d62565b82525050565b6134f081613d86565b82525050565b6134ff81613d92565b82525050565b600061351082613cab565b61351a8185613cb6565b935061352a818560208601613e2b565b61353381613f4e565b840191505092915050565b600061354982613cab565b6135538185613cc7565b9350613563818560208601613e2b565b61356c81613f4e565b840191505092915050565b6000613584601283613cc7565b915061358f82613f5f565b602082019050919050565b60006135a7600f83613cc7565b91506135b282613f88565b602082019050919050565b60006135ca601d83613cc7565b91506135d582613fb1565b602082019050919050565b60006135ed601d83613cc7565b91506135f882613fda565b602082019050919050565b6000613610602483613cc7565b915061361b82614003565b604082019050919050565b6000613633604183613cc7565b915061363e82614052565b606082019050919050565b6000613656602d83613cc7565b9150613661826140c7565b604082019050919050565b6000613679600e83613cc7565b915061368482614116565b602082019050919050565b600061369c601083613cc7565b91506136a78261413f565b602082019050919050565b6000610140830160008301516136cb600086018261379a565b5060208301516136de60208601826134c9565b5060408301516136f1604086018261379a565b506060830151613704606086018261379a565b50608083015161371760808601826134c9565b5060a083015161372a60a08601826134c9565b5060c083015161373d60c08601826137b8565b5060e083015184820360e08601526137558282613505565b9150506101008301518482036101008601526137718282613505565b91505061012083015184820361012086015261378d8282613505565b9150508091505092915050565b6137a381613dde565b82525050565b6137b281613dde565b82525050565b6137c181613de8565b82525050565b6137d081613de8565b82525050565b60006040820190506137eb60008301856134ba565b6137f860208301846137a9565b9392505050565b600060608201905061381460008301866134d8565b61382160208301856134d8565b61382e60408301846137a9565b949350505050565b600060408201905061384b60008301856134d8565b61385860208301846137a9565b9392505050565b600060608201905061387460008301866134d8565b61388160208301856137a9565b61388e60408301846137a9565b949350505050565b60006080820190506138ab60008301876134d8565b6138b860208301866137a9565b6138c560408301856137a9565b6138d260608301846137a9565b95945050505050565b60006020820190506138f060008301846134e7565b92915050565b600060208201905061390b60008301846134f6565b92915050565b6000602082019050818103600083015261392b818461353e565b905092915050565b6000602082019050818103600083015261394c81613577565b9050919050565b6000602082019050818103600083015261396c8161359a565b9050919050565b6000602082019050818103600083015261398c816135bd565b9050919050565b600060208201905081810360008301526139ac816135e0565b9050919050565b600060208201905081810360008301526139cc81613603565b9050919050565b600060208201905081810360008301526139ec81613626565b9050919050565b60006020820190508181036000830152613a0c81613649565b9050919050565b60006020820190508181036000830152613a2c8161366c565b9050919050565b60006020820190508181036000830152613a4c8161368f565b9050919050565b60006020820190508181036000830152613a6d81846136b2565b905092915050565b6000602082019050613a8a60008301846137a9565b92915050565b6000604082019050613aa560008301856137a9565b613ab260208301846134d8565b9392505050565b6000606082019050613ace60008301866137a9565b613adb60208301856134d8565b613ae860408301846134ba565b949350505050565b600060a082019050613b0560008301886137a9565b613b1260208301876134d8565b613b1f60408301866134d8565b613b2c60608301856137a9565b613b3960808301846137a9565b9695505050505050565b600060c082019050613b5860008301896137a9565b613b6560208301886134d8565b613b7260408301876134d8565b613b7f60608301866137a9565b613b8c60808301856137c7565b613b9960a08301846137a9565b979650505050505050565b600061014082019050613bba600083018d6137a9565b613bc7602083018c6134d8565b613bd4604083018b6137a9565b613be1606083018a6137a9565b613bee60808301896134d8565b613bfb60a08301886134d8565b613c0860c08301876137c7565b81810360e0830152613c1a818661353e565b9050818103610100830152613c2f818561353e565b9050818103610120830152613c44818461353e565b90509b9a5050505050505050505050565b6000613c5f613c70565b9050613c6b8282613e90565b919050565b6000604051905090565b600067ffffffffffffffff821115613c9557613c94613f1f565b5b613c9e82613f4e565b9050602081019050919050565b600081519050919050565b600082825260208201905092915050565b600082825260208201905092915050565b6000613ce382613dde565b9150613cee83613dde565b9250827fffffffffffffffffffffffffffffffffffffffffffffffffffffffffffffffff03821115613d2357613d22613ec1565b5b828201905092915050565b6000613d3982613dde565b9150613d4483613dde565b925082821015613d5757613d56613ec1565b5b828203905092915050565b6000613d6d82613dbe565b9050919050565b6000613d7f82613dbe565b9050919050565b60008115159050919050565b60007fffffffff0000000000000000000000000000000000000000000000000000000082169050919050565b600073ffffffffffffffffffffffffffffffffffffffff82169050919050565b6000819050919050565b600060ff82169050919050565b6000613e0082613e07565b9050919050565b6000613e1282613e19565b9050919050565b6000613e2482613dbe565b9050919050565b60005b83811015613e49578082015181840152602081019050613e2e565b83811115613e58576000848401525b50505050565b60006002820490506001821680613e7657607f821691505b60208210811415613e8a57613e89613ef0565b5b50919050565b613e9982613f4e565b810181811067ffffffffffffffff82111715613eb857613eb7613f1f565b5b80604052505050565b7f4e487b7100000000000000000000000000000000000000000000000000000000600052601160045260246000fd5b7f4e487b7100000000000000000000000000000000000000000000000000000000600052602260045260246000fd5b7f4e487b7100000000000000000000000000000000000000000000000000000000600052604160045260246000fd5b6000601f19601f8301169050919050565b7f546869732061736b20697320636c6f7365640000000000000000000000000000600082015250565b7f4f6e6c7920657363726f772063616e0000000000000000000000000000000000600082015250565b7f4f6e6c7920746f6b656e206f776e65722063616e20656469742061736b000000600082015250565b7f4f6e6c7920746f6b656e206f776e65722063616e206d616b652061736b000000600082015250565b7f4f6e6c7920657363726f77206f722062757965722063616e2063616c6c20627560008201527f794b534d00000000000000000000000000000000000000000000000000000000602082015250565b7f43616e277420616363657074207061796d656e7420776974686f757420636f6c60008201527f6c656374696f6e20616e64204944732c20757365206441707020746f2073656e60208201527f6400000000000000000000000000000000000000000000000000000000000000604082015250565b7f4e6f7420726967687420616d6f756e742073656e742c206861766520746f206260008201527f6520657175616c20707269636500000000000000000000000000000000000000602082015250565b7f4f6e6c79206f776e65722063616e000000000000000000000000000000000000600082015250565b7f4e6f20737563682066756e6374696f6e00000000000000000000000000000000600082015250565b61417181613d62565b811461417c57600080fd5b50565b61418881613d74565b811461419357600080fd5b50565b61419f81613d86565b81146141aa57600080fd5b50565b6141b681613dde565b81146141c157600080fd5b50565b6141cd81613de8565b81146141d857600080fd5b5056fea2646970667358221220c987546724b369116fe1fa87a770b94f684776c9860a5a500a04224fe2fa2e7c64736f6c63430008040033",
  "immutableReferences": {},
  "source": "// SPDX-License-Identifier:  Apache License\r\npragma solidity >= 0.8.0;\r\nimport \"./interfaces/IERC721ext.sol\";\r\nimport \"@openzeppelin/contracts/token/ERC721/IERC721Receiver.sol\";\r\nimport \"@openzeppelin/contracts/utils/math/SafeMath.sol\";\r\nimport \"@openzeppelin/contracts/token/ERC20/IERC20.sol\";\r\n\r\n\r\ncontract MarketPlace is IERC721Receiver {\r\n    using SafeMath for uint;\r\n    struct Order {\r\n        \r\n        uint256 idNFT;\r\n        address currencyCode; // UNIQ tokens as address address (1); wKSM \r\n        uint256 price;\r\n        uint256 time;\r\n        address idCollection;\r\n        address ownerAddr;\r\n        uint8 flagActive;\r\n        string name;\r\n        string symbol;\r\n        string tokenURI;        \r\n    }\r\n    Order[] public  orders;\r\n    uint test;\r\n    mapping (address => uint256) public balanceKSM;  //  [ownerAddr][currency] => [KSMs]\r\n    mapping (address => mapping (uint256 => uint256)) public  asks ; // [buyer][idCollection][idNFT] => idorder\r\n\r\n    mapping (address => uint[]) public asksbySeller; // [addressSeller] =>idorder\r\n\r\n    address escrow;\r\n    address owner;\r\n    address nativecoin;\r\n\r\n    constructor (address _escrow) {\r\n        escrow = _escrow;\r\n        owner = msg.sender;\r\n\r\n         orders.push(Order(        \r\n                    0,\r\n                    address(0),\r\n                    0,\r\n                    0,\r\n                    address(0),\r\n                    address(0),\r\n                    0, \"\",\"\",\"\"));\r\n    }\r\n\r\n   function setowner  (address _newEscrow) public onlyOwner {\r\n        escrow = _newEscrow;\r\n    }\r\n\r\n    function setEscrow  (address _newEscrow) public onlyOwner {\r\n        escrow = _newEscrow;\r\n    }\r\n\r\n    function setNativeCoin  (address _coin) public onlyOwner {\r\n        nativecoin = _coin;\r\n    }\r\n\r\n    \r\n\r\n    modifier onlyEscrow () {\r\n        require(msg.sender == escrow, \"Only escrow can\");\r\n        _;\r\n    }\r\n\r\n    modifier onlyOwner () {\r\n        require(msg.sender == owner, \"Only owner can\");\r\n        _;\r\n    }\r\n\r\n    /**\r\n    * Make bids (orders) to sell NFTs \r\n    */\r\n    \r\n    receive  () external payable {\r\n        revert (\"Can't accept payment without collection and IDs, use dApp to send\");\r\n    }\r\n    fallback () external payable {\r\n        revert (\"No such function\");\r\n    }\r\n\r\n    event AddedAsk (uint256 _price, \r\n                    address  _currencyCode, \r\n                    address _idCollection, \r\n                    uint256 _idNFT,\r\n                    uint256 orderId\r\n                  );\r\n    event EditedAsk (uint256 _price, \r\n                    address  _currencyCode, \r\n                    address _idCollection, \r\n                    uint256 _idNFT,\r\n                    uint8  _active,\r\n                    uint orderId);\r\n\r\n    event  CanceledAsk (address _idCollection, \r\n                        uint256 _idNFT, \r\n                        uint orderId\r\n                        );\r\n\r\n    event DepositedKSM (uint256 _amount,  address _sender);\r\n\r\n    event BoughtNFT4KSM (address _idCollection, uint256 _idNFT, uint orderID, uint orderPrice );\r\n\r\n    event BoughtNFT (address _idCollection, uint256 _idNFT, uint orderID, uint orderPrice );\r\n\r\n    event WithdrawnAllKSM (address _sender, uint256 balance); \r\n\r\n    event Withdrawn (uint256 _amount, address _currencyCode, address _sender);\r\n    \r\n    function addAsk (uint256 _price, \r\n                    address  _currencyCode, \r\n                    address _idCollection, \r\n                    uint256 _idNFT\r\n                  ) public  { //\r\n        address ownerNFT = IERC721ext(_idCollection).ownerOf(_idNFT);\r\n        require (ownerNFT == msg.sender, \"Only token owner can make ask\");\r\n        string memory nameNFT;\r\n        string memory symbolNFT;\r\n        string memory uriNFT;\r\n        try IERC721ext(_idCollection).name() returns (string memory name_) {\r\n            nameNFT = name_;\r\n        }\r\n        catch {\r\n            nameNFT=\"\";\r\n        }   \r\n        try IERC721ext(_idCollection).symbol() returns (string memory symbol_) {\r\n            symbolNFT = symbol_;\r\n        }\r\n        catch {\r\n            symbolNFT=\"\";\r\n        }  \r\n        try IERC721ext(_idCollection).tokenURI(_idNFT) returns (string memory uri_) {\r\n            uriNFT = uri_;\r\n        }\r\n        catch {\r\n            uriNFT=\"\";\r\n        }        \r\n        orders.push(Order(        \r\n                    _idNFT,\r\n                    _currencyCode,\r\n                    _price,\r\n                    block.timestamp,\r\n                    _idCollection,\r\n                    msg.sender,\r\n                    1, // 1 = is active\r\n                    nameNFT, \r\n                    symbolNFT,\r\n                    uriNFT\r\n             ));\r\n            \r\n            uint orderId = orders.length-1;\r\n            asks[_idCollection][_idNFT] = orderId;\r\n            asksbySeller[msg.sender].push(orderId);\r\n            IERC721ext(_idCollection).transferFrom(msg.sender, address(this), _idNFT);\r\n            emit AddedAsk(_price, _currencyCode, _idCollection, _idNFT, orderId);     \r\n    }\r\n\r\n    function editAsk (uint256 _price, \r\n                    address  _currencyCode, \r\n                    address _idCollection, \r\n                    uint256 _idNFT,\r\n                    uint8  _active) public {\r\n        \r\n\r\n        uint orderID =  asks[_idCollection][_idNFT];\r\n\r\n        require (orders[orderID].ownerAddr == msg.sender, \"Only token owner can edit ask\");\r\n        require (orders[orderID].flagActive != 0, \"This ask is closed\");\r\n        if (_price> 0 ) {\r\n            orders[orderID].price = _price ;  \r\n        }\r\n        \r\n        if (_currencyCode != address(0) ) {\r\n            orders[orderID].currencyCode = _currencyCode ;  \r\n        }\r\n\r\n        orders[orderID].time = block.timestamp;\r\n        orders[orderID].flagActive = _active;\r\n        \r\n        emit EditedAsk(_price, _currencyCode, _idCollection, _idNFT, _active, orderID);\r\n        }\r\n        \r\n\r\n    function cancelAsk (address _idCollection, \r\n                        uint256 _idNFT\r\n                        ) public {\r\n\r\n        uint orderID =  asks[_idCollection][_idNFT];\r\n\r\n        require (orders[orderID].ownerAddr == msg.sender, \"Only token owner can edit ask\");\r\n        require (orders[orderID].flagActive != 0, \"This ask is closed\");\r\n\r\n        orders[orderID].time = block.timestamp;\r\n        orders[orderID].flagActive = 0;\r\n        IERC721ext(_idCollection).transferFrom(address(this),orders[orderID].ownerAddr, _idNFT);\r\n        emit CanceledAsk(_idCollection, _idNFT, orderID);\r\n        }\r\n\r\n\r\n    function depositKSM (uint256 _amount,  address _sender) public onlyEscrow {\r\n\r\n        balanceKSM[_sender]= balanceKSM[_sender].add(_amount);\r\n        emit DepositedKSM(_amount, _sender);\r\n    }\r\n\r\n    function buyKSM (address _idCollection, uint256 _idNFT, address _buyer, address _receiver ) public {\r\n        \r\n        Order memory order = orders[ asks[_idCollection][_idNFT]];\r\n        require(msg.sender == escrow || msg.sender == _buyer, \"Only escrow or buyer can call buyKSM\" );\r\n        //1. reduce balance\r\n\r\n        balanceKSM[_buyer] = balanceKSM[_buyer].sub( order.price, \"Insuccificient KSMs funds\");\r\n        balanceKSM[order.ownerAddr] = balanceKSM[order.ownerAddr].add( order.price);\r\n        // 2. close order\r\n        orders[ asks[_idCollection][_idNFT]].flagActive = 0;\r\n        // 3. transfer NFT to buyer\r\n        IERC721ext(_idCollection).transferFrom(address(this), _receiver, _idNFT);\r\n        emit BoughtNFT4KSM(_idCollection, _idNFT, asks[_idCollection][_idNFT], order.price);\r\n\r\n    }\r\n    function buy (address _idCollection, uint256 _idNFT ) public payable returns (bool result) { //buing for UNQ like as ethers \r\n        \r\n        Order memory order = orders[asks[_idCollection][_idNFT]]; \r\n        //1. check sent amount and send to seller\r\n        require (msg.value == order.price, \"Not right amount sent, have to be equal price\" );     \r\n        // 2. close order\r\n        orders[ asks[_idCollection][_idNFT]].flagActive = 0;\r\n        \r\n        // 3. transfer NFT to buyer\r\n        IERC721ext(_idCollection).transferFrom(address(this), msg.sender, _idNFT);\r\n        //uint balance  = address(this).balance;\r\n        result = payable(order.ownerAddr).send (order.price); \r\n        emit BoughtNFT(_idCollection, _idNFT, asks[_idCollection][_idNFT], order.price);\r\n        \r\n    }\r\n\r\n/* \r\n    function buyOther (address _idCollection, uint256 _idNFT, address _currencyCode, uint _amount ) public  { //buy for sny token if seller wants\r\n        \r\n        Order memory order = orders[ asks[_idCollection][_idNFT]];\r\n        //1. check sent amount and transfer from buyer to seller\r\n        require (order.price == _amount && order.currencyCode == _currencyCode, \"Not right amount or currency sent, have to be equal currency and price\" );\r\n        // !!! transfer have to be approved to marketplace!\r\n        IERC20(order.currencyCode).transferFrom(msg.sender, address(this), order.price); //to not disclojure buyer's address \r\n        IERC20(order.currencyCode).transfer(order.ownerAddr, order.price);\r\n        // 2. close order\r\n        orders[ asks[_idCollection][_idNFT]].flagActive = 0;\r\n        // 3. transfer NFT to buyer\r\n        IERC721ext(_idCollection).transferFrom(address(this), msg.sender, _idNFT);\r\n\r\n\r\n    }\r\n */\r\n\r\n    function withdrawAllKSM (address _sender) public  onlyEscrow returns (uint lastBalance ){\r\n        lastBalance = balanceKSM[_sender];\r\n        balanceKSM[_sender] =0;\r\n        emit WithdrawnAllKSM(_sender, lastBalance);\r\n    }\r\n\r\n    function withdraw (uint256 _amount, address _currencyCode, address payable _sender) public  onlyOwner returns (bool result ){\r\n        \r\n        if (_currencyCode != nativecoin ) { //erc20 compat. tokens on UNIQUE chain\r\n            // uint balance = IERC20(_currencyCode).balanceOf(address(this));\r\n            IERC20(_currencyCode).transfer(_sender, _amount);\r\n        } else {\r\n            // uint balance  = address(this).balance;\r\n\r\n            result =  (_sender).send(_amount); // for UNQ like as ethers \r\n        }\r\n        emit Withdrawn(_amount, _currencyCode, _sender);\r\n        return result;\r\n\r\n    }\r\n   // event GettedOrder(uint , Order);\r\n    function getOrder (address _idCollection, uint256 _idNFT) public view returns (Order memory) {\r\n        uint orderId = asks[_idCollection][_idNFT];\r\n        Order memory order = orders[orderId];\r\n //       emit GettedOrder (orderId, order);\r\n        return order;\r\n    }\r\n\r\n    function getOrdersLen () public view returns (uint) {\r\n        return orders.length;\r\n    }\r\n\r\n    function onERC721Received(address operator, address from, uint256 tokenId, bytes calldata data)  public override pure returns(bytes4) {\r\n            return bytes4(keccak256(\"onERC721Received(address,address,uint256,bytes)\"));\r\n        }\r\n}",
  "sourcePath": "C:\\Users\\kpozd\\WebstormProjects\\marketplace_backend\\contracts\\MarketPlace.sol",
  "compiler": {
    "name": "solc",
    "version": "0.8.4+commit.c7e474f2.Emscripten.clang"
  },
  "schemaVersion": "3.4.3",
  "updatedAt": "2021-11-26T06:42:50.247Z",
  "networkType": "ethereum",
  "devdoc": {
    "kind": "dev",
    "methods": {
      "onERC721Received(address,address,uint256,bytes)": {
        "details": "Whenever an {IERC721} `tokenId` token is transferred to this contract via {IERC721-safeTransferFrom} by `operator` from `from`, this function is called. It must return its Solidity selector to confirm the token transfer. If any other value is returned or the interface is not implemented by the recipient, the transfer will be reverted. The selector can be obtained in Solidity with `IERC721.onERC721Received.selector`."
      }
    },
    "version": 1
  },
  "userdoc": {
    "kind": "user",
    "methods": {},
    "version": 1
  }
}