{
  "contractName": "MarketPlace",
  "abi": [
    {
      "inputs": [
        {
          "internalType": "address",
          "name": "_escrow",
          "type": "address"
        }
      ],
      "stateMutability": "nonpayable",
      "type": "constructor"
    },
    {
      "anonymous": false,
      "inputs": [
        {
          "indexed": false,
          "internalType": "uint256",
          "name": "_price",
          "type": "uint256"
        },
        {
          "indexed": false,
          "internalType": "address",
          "name": "_currencyCode",
          "type": "address"
        },
        {
          "indexed": false,
          "internalType": "address",
          "name": "_idCollection",
          "type": "address"
        },
        {
          "indexed": false,
          "internalType": "uint256",
          "name": "_idNFT",
          "type": "uint256"
        },
        {
          "indexed": false,
          "internalType": "uint256",
          "name": "orderId",
          "type": "uint256"
        }
      ],
      "name": "AddedAsk",
      "type": "event"
    },
    {
      "anonymous": false,
      "inputs": [
        {
          "indexed": false,
          "internalType": "address",
          "name": "_idCollection",
          "type": "address"
        },
        {
          "indexed": false,
          "internalType": "uint256",
          "name": "_idNFT",
          "type": "uint256"
        },
        {
          "indexed": false,
          "internalType": "uint256",
          "name": "orderID",
          "type": "uint256"
        },
        {
          "indexed": false,
          "internalType": "uint256",
          "name": "orderPrice",
          "type": "uint256"
        }
      ],
      "name": "BoughtNFT",
      "type": "event"
    },
    {
      "anonymous": false,
      "inputs": [
        {
          "indexed": false,
          "internalType": "address",
          "name": "_idCollection",
          "type": "address"
        },
        {
          "indexed": false,
          "internalType": "uint256",
          "name": "_idNFT",
          "type": "uint256"
        },
        {
          "indexed": false,
          "internalType": "uint256",
          "name": "orderID",
          "type": "uint256"
        },
        {
          "indexed": false,
          "internalType": "uint256",
          "name": "orderPrice",
          "type": "uint256"
        }
      ],
      "name": "BoughtNFT4KSM",
      "type": "event"
    },
    {
      "anonymous": false,
      "inputs": [
        {
          "indexed": false,
          "internalType": "address",
          "name": "_idCollection",
          "type": "address"
        },
        {
          "indexed": false,
          "internalType": "uint256",
          "name": "_idNFT",
          "type": "uint256"
        },
        {
          "indexed": false,
          "internalType": "uint256",
          "name": "orderId",
          "type": "uint256"
        }
      ],
      "name": "CanceledAsk",
      "type": "event"
    },
    {
      "anonymous": false,
      "inputs": [
        {
          "indexed": false,
          "internalType": "uint256",
          "name": "_amount",
          "type": "uint256"
        },
        {
          "indexed": false,
          "internalType": "address",
          "name": "_sender",
          "type": "address"
        }
      ],
      "name": "DepositedKSM",
      "type": "event"
    },
    {
      "anonymous": false,
      "inputs": [
        {
          "indexed": false,
          "internalType": "uint256",
          "name": "_price",
          "type": "uint256"
        },
        {
          "indexed": false,
          "internalType": "address",
          "name": "_currencyCode",
          "type": "address"
        },
        {
          "indexed": false,
          "internalType": "address",
          "name": "_idCollection",
          "type": "address"
        },
        {
          "indexed": false,
          "internalType": "uint256",
          "name": "_idNFT",
          "type": "uint256"
        },
        {
          "indexed": false,
          "internalType": "uint8",
          "name": "_active",
          "type": "uint8"
        },
        {
          "indexed": false,
          "internalType": "uint256",
          "name": "orderId",
          "type": "uint256"
        }
      ],
      "name": "EditedAsk",
      "type": "event"
    },
    {
      "anonymous": false,
      "inputs": [
        {
          "indexed": false,
          "internalType": "uint256",
          "name": "_amount",
          "type": "uint256"
        },
        {
          "indexed": false,
          "internalType": "address",
          "name": "_currencyCode",
          "type": "address"
        },
        {
          "indexed": false,
          "internalType": "address",
          "name": "_sender",
          "type": "address"
        }
      ],
      "name": "Withdrawn",
      "type": "event"
    },
    {
      "anonymous": false,
      "inputs": [
        {
          "indexed": false,
          "internalType": "address",
          "name": "_sender",
          "type": "address"
        },
        {
          "indexed": false,
          "internalType": "uint256",
          "name": "balance",
          "type": "uint256"
        }
      ],
      "name": "WithdrawnAllKSM",
      "type": "event"
    },
    {
      "stateMutability": "payable",
      "type": "fallback",
      "payable": true
    },
    {
      "inputs": [
        {
          "internalType": "address",
          "name": "",
          "type": "address"
        },
        {
          "internalType": "uint256",
          "name": "",
          "type": "uint256"
        }
      ],
      "name": "asks",
      "outputs": [
        {
          "internalType": "uint256",
          "name": "",
          "type": "uint256"
        }
      ],
      "stateMutability": "view",
      "type": "function",
      "constant": true
    },
    {
      "inputs": [
        {
          "internalType": "address",
          "name": "",
          "type": "address"
        },
        {
          "internalType": "uint256",
          "name": "",
          "type": "uint256"
        }
      ],
      "name": "asksbySeller",
      "outputs": [
        {
          "internalType": "uint256",
          "name": "",
          "type": "uint256"
        }
      ],
      "stateMutability": "view",
      "type": "function",
      "constant": true
    },
    {
      "inputs": [
        {
          "internalType": "address",
          "name": "",
          "type": "address"
        }
      ],
      "name": "balanceKSM",
      "outputs": [
        {
          "internalType": "uint256",
          "name": "",
          "type": "uint256"
        }
      ],
      "stateMutability": "view",
      "type": "function",
      "constant": true
    },
    {
      "inputs": [
        {
          "internalType": "uint256",
          "name": "",
          "type": "uint256"
        }
      ],
      "name": "orders",
      "outputs": [
        {
          "internalType": "uint256",
          "name": "idNFT",
          "type": "uint256"
        },
        {
          "internalType": "address",
          "name": "currencyCode",
          "type": "address"
        },
        {
          "internalType": "uint256",
          "name": "price",
          "type": "uint256"
        },
        {
          "internalType": "uint256",
          "name": "time",
          "type": "uint256"
        },
        {
          "internalType": "address",
          "name": "idCollection",
          "type": "address"
        },
        {
          "internalType": "address",
          "name": "ownerAddr",
          "type": "address"
        },
        {
          "internalType": "uint8",
          "name": "flagActive",
          "type": "uint8"
        },
        {
          "internalType": "string",
          "name": "name",
          "type": "string"
        },
        {
          "internalType": "string",
          "name": "symbol",
          "type": "string"
        },
        {
          "internalType": "string",
          "name": "tokenURI",
          "type": "string"
        }
      ],
      "stateMutability": "view",
      "type": "function",
      "constant": true
    },
    {
      "stateMutability": "payable",
      "type": "receive",
      "payable": true
    },
    {
      "inputs": [
        {
          "internalType": "address",
          "name": "_newEscrow",
          "type": "address"
        }
      ],
      "name": "setowner",
      "outputs": [],
      "stateMutability": "nonpayable",
      "type": "function"
    },
    {
      "inputs": [
        {
          "internalType": "address",
          "name": "_newEscrow",
          "type": "address"
        }
      ],
      "name": "setEscrow",
      "outputs": [],
      "stateMutability": "nonpayable",
      "type": "function"
    },
    {
      "inputs": [
        {
          "internalType": "address",
          "name": "_coin",
          "type": "address"
        }
      ],
      "name": "setNativeCoin",
      "outputs": [],
      "stateMutability": "nonpayable",
      "type": "function"
    },
    {
      "inputs": [
        {
          "internalType": "uint256",
          "name": "_price",
          "type": "uint256"
        },
        {
          "internalType": "address",
          "name": "_currencyCode",
          "type": "address"
        },
        {
          "internalType": "address",
          "name": "_idCollection",
          "type": "address"
        },
        {
          "internalType": "uint256",
          "name": "_idNFT",
          "type": "uint256"
        }
      ],
      "name": "addAsk",
      "outputs": [],
      "stateMutability": "nonpayable",
      "type": "function"
    },
    {
      "inputs": [
        {
          "internalType": "uint256",
          "name": "_price",
          "type": "uint256"
        },
        {
          "internalType": "address",
          "name": "_currencyCode",
          "type": "address"
        },
        {
          "internalType": "address",
          "name": "_idCollection",
          "type": "address"
        },
        {
          "internalType": "uint256",
          "name": "_idNFT",
          "type": "uint256"
        },
        {
          "internalType": "uint8",
          "name": "_active",
          "type": "uint8"
        }
      ],
      "name": "editAsk",
      "outputs": [],
      "stateMutability": "nonpayable",
      "type": "function"
    },
    {
      "inputs": [
        {
          "internalType": "address",
          "name": "_idCollection",
          "type": "address"
        },
        {
          "internalType": "uint256",
          "name": "_idNFT",
          "type": "uint256"
        }
      ],
      "name": "cancelAsk",
      "outputs": [],
      "stateMutability": "nonpayable",
      "type": "function"
    },
    {
      "inputs": [
        {
          "internalType": "uint256",
          "name": "_amount",
          "type": "uint256"
        },
        {
          "internalType": "address",
          "name": "_sender",
          "type": "address"
        }
      ],
      "name": "depositKSM",
      "outputs": [],
      "stateMutability": "nonpayable",
      "type": "function"
    },
    {
      "inputs": [
        {
          "internalType": "address",
          "name": "_idCollection",
          "type": "address"
        },
        {
          "internalType": "uint256",
          "name": "_idNFT",
          "type": "uint256"
        },
        {
          "internalType": "address",
          "name": "_buyer",
          "type": "address"
        },
        {
          "internalType": "address",
          "name": "_receiver",
          "type": "address"
        }
      ],
      "name": "buyKSM",
      "outputs": [],
      "stateMutability": "nonpayable",
      "type": "function"
    },
    {
      "inputs": [
        {
          "internalType": "address",
          "name": "_idCollection",
          "type": "address"
        },
        {
          "internalType": "uint256",
          "name": "_idNFT",
          "type": "uint256"
        }
      ],
      "name": "buy",
      "outputs": [
        {
          "internalType": "bool",
          "name": "result",
          "type": "bool"
        }
      ],
      "stateMutability": "payable",
      "type": "function",
      "payable": true
    },
    {
      "inputs": [
        {
          "internalType": "address",
          "name": "_sender",
          "type": "address"
        }
      ],
      "name": "withdrawAllKSM",
      "outputs": [
        {
          "internalType": "uint256",
          "name": "lastBalance",
          "type": "uint256"
        }
      ],
      "stateMutability": "nonpayable",
      "type": "function"
    },
    {
      "inputs": [
        {
          "internalType": "uint256",
          "name": "_amount",
          "type": "uint256"
        },
        {
          "internalType": "address",
          "name": "_currencyCode",
          "type": "address"
        },
        {
          "internalType": "address payable",
          "name": "_sender",
          "type": "address"
        }
      ],
      "name": "withdraw",
      "outputs": [
        {
          "internalType": "bool",
          "name": "result",
          "type": "bool"
        }
      ],
      "stateMutability": "nonpayable",
      "type": "function"
    },
    {
      "inputs": [
        {
          "internalType": "address",
          "name": "_idCollection",
          "type": "address"
        },
        {
          "internalType": "uint256",
          "name": "_idNFT",
          "type": "uint256"
        }
      ],
      "name": "getOrder",
      "outputs": [
        {
          "components": [
            {
              "internalType": "uint256",
              "name": "idNFT",
              "type": "uint256"
            },
            {
              "internalType": "address",
              "name": "currencyCode",
              "type": "address"
            },
            {
              "internalType": "uint256",
              "name": "price",
              "type": "uint256"
            },
            {
              "internalType": "uint256",
              "name": "time",
              "type": "uint256"
            },
            {
              "internalType": "address",
              "name": "idCollection",
              "type": "address"
            },
            {
              "internalType": "address",
              "name": "ownerAddr",
              "type": "address"
            },
            {
              "internalType": "uint8",
              "name": "flagActive",
              "type": "uint8"
            },
            {
              "internalType": "string",
              "name": "name",
              "type": "string"
            },
            {
              "internalType": "string",
              "name": "symbol",
              "type": "string"
            },
            {
              "internalType": "string",
              "name": "tokenURI",
              "type": "string"
            }
          ],
          "internalType": "struct MarketPlace.Order",
          "name": "",
          "type": "tuple"
        }
      ],
      "stateMutability": "view",
      "type": "function",
      "constant": true
    },
    {
      "inputs": [],
      "name": "getOrdersLen",
      "outputs": [
        {
          "internalType": "uint256",
          "name": "",
          "type": "uint256"
        }
      ],
      "stateMutability": "view",
      "type": "function",
      "constant": true
    },
    {
      "inputs": [
        {
          "internalType": "address",
          "name": "operator",
          "type": "address"
        },
        {
          "internalType": "address",
          "name": "from",
          "type": "address"
        },
        {
          "internalType": "uint256",
          "name": "tokenId",
          "type": "uint256"
        },
        {
          "internalType": "bytes",
          "name": "data",
          "type": "bytes"
        }
      ],
      "name": "onERC721Received",
      "outputs": [
        {
          "internalType": "bytes4",
          "name": "",
          "type": "bytes4"
        }
      ],
      "stateMutability": "pure",
      "type": "function",
      "constant": true
    }
  ],
  "bytecode": "0x60806040523480156200001157600080fd5b506040516200458e3803806200458e8339818101604052810190620000379190620003e6565b80600560006101000a81548173ffffffffffffffffffffffffffffffffffffffff021916908373ffffffffffffffffffffffffffffffffffffffff16021790555033600660006101000a81548173ffffffffffffffffffffffffffffffffffffffff021916908373ffffffffffffffffffffffffffffffffffffffff160217905550600060405180610140016040528060008152602001600073ffffffffffffffffffffffffffffffffffffffff1681526020016000815260200160008152602001600073ffffffffffffffffffffffffffffffffffffffff168152602001600073ffffffffffffffffffffffffffffffffffffffff168152602001600060ff1681526020016040518060200160405280600081525081526020016040518060200160405280600081525081526020016040518060200160405280600081525081525090806001815401808255809150506001900390600052602060002090600902016000909190919091506000820151816000015560208201518160010160006101000a81548173ffffffffffffffffffffffffffffffffffffffff021916908373ffffffffffffffffffffffffffffffffffffffff160217905550604082015181600201556060820151816003015560808201518160040160006101000a81548173ffffffffffffffffffffffffffffffffffffffff021916908373ffffffffffffffffffffffffffffffffffffffff16021790555060a08201518160050160006101000a81548173ffffffffffffffffffffffffffffffffffffffff021916908373ffffffffffffffffffffffffffffffffffffffff16021790555060c08201518160050160146101000a81548160ff021916908360ff16021790555060e0820151816006019080519060200190620002d59291906200031f565b50610100820151816007019080519060200190620002f59291906200031f565b50610120820151816008019080519060200190620003159291906200031f565b50505050620004c5565b8280546200032d9062000446565b90600052602060002090601f0160209004810192826200035157600085556200039d565b82601f106200036c57805160ff19168380011785556200039d565b828001600101855582156200039d579182015b828111156200039c5782518255916020019190600101906200037f565b5b509050620003ac9190620003b0565b5090565b5b80821115620003cb576000816000905550600101620003b1565b5090565b600081519050620003e081620004ab565b92915050565b600060208284031215620003f957600080fd5b60006200040984828501620003cf565b91505092915050565b60006200041f8262000426565b9050919050565b600073ffffffffffffffffffffffffffffffffffffffff82169050919050565b600060028204905060018216806200045f57607f821691505b602082108114156200047657620004756200047c565b5b50919050565b7f4e487b7100000000000000000000000000000000000000000000000000000000600052602260045260246000fd5b620004b68162000412565b8114620004c257600080fd5b50565b6140b980620004d56000396000f3fe60806040526004361061010d5760003560e01c806399f2d4eb11610095578063c10c354611610064578063c10c354614610420578063cce7ec1314610449578063e22d4f7d14610479578063edb25841146104b6578063fd8868c7146104f35761014d565b806399f2d4eb14610323578063a85c38ef14610360578063b460af94146103a6578063b4c3e8ea146103e35761014d565b8063592bd705116100dc578063592bd705146102405780636b084b2514610269578063791bd866146102925780638c088f00146102bb57806393cdd334146102e65761014d565b8063150b7a021461018857806337c4eb58146101c55780633ce61756146101ee57806340b80746146102175761014d565b3661014d576040517f08c379a0000000000000000000000000000000000000000000000000000000008152600401610144906138ca565b60405180910390fd5b6040517f08c379a000000000000000000000000000000000000000000000000000000000815260040161017f9061392a565b60405180910390fd5b34801561019457600080fd5b506101af60048036038101906101aa91906130dd565b61051c565b6040516101bc919061380d565b60405180910390f35b3480156101d157600080fd5b506101ec60048036038101906101e7919061331a565b61054a565b005b3480156101fa57600080fd5b506102156004803603810190610210919061308b565b610bd9565b005b34801561022357600080fd5b5061023e6004803603810190610239919061315d565b610cad565b005b34801561024c57600080fd5b506102676004803603810190610262919061308b565b611047565b005b34801561027557600080fd5b50610290600480360381019061028b919061337d565b61111b565b005b34801561029e57600080fd5b506102b960048036038101906102b4919061328f565b6114fd565b005b3480156102c757600080fd5b506102d061165f565b6040516102dd919061396c565b60405180910390f35b3480156102f257600080fd5b5061030d6004803603810190610308919061308b565b61166b565b60405161031a919061396c565b60405180910390f35b34801561032f57600080fd5b5061034a6004803603810190610345919061315d565b6117c2565b604051610357919061396c565b60405180910390f35b34801561036c57600080fd5b5061038760048036038101906103829190613266565b6117f3565b60405161039d9a99989796959493929190613a9b565b60405180910390f35b3480156103b257600080fd5b506103cd60048036038101906103c891906132cb565b611a5c565b6040516103da91906137f2565b60405180910390f35b3480156103ef57600080fd5b5061040a6004803603810190610405919061308b565b611c50565b604051610417919061396c565b60405180910390f35b34801561042c57600080fd5b506104476004803603810190610442919061308b565b611c68565b005b610463600480360381019061045e919061315d565b611d3c565b60405161047091906137f2565b60405180910390f35b34801561048557600080fd5b506104a0600480360381019061049b919061315d565b612318565b6040516104ad919061396c565b60405180910390f35b3480156104c257600080fd5b506104dd60048036038101906104d8919061315d565b61233d565b6040516104ea919061394a565b60405180910390f35b3480156104ff57600080fd5b5061051a60048036038101906105159190613199565b6126ef565b005b60007f150b7a023d4804d13e8c85fb27262cb750cf6ba9f9dd3bb30d90f482ceeb4b1f905095945050505050565b60008273ffffffffffffffffffffffffffffffffffffffff16636352211e836040518263ffffffff1660e01b8152600401610585919061396c565b60206040518083038186803b15801561059d57600080fd5b505afa1580156105b1573d6000803e3d6000fd5b505050506040513d601f19601f820116820180604052508101906105d591906130b4565b90503373ffffffffffffffffffffffffffffffffffffffff168173ffffffffffffffffffffffffffffffffffffffff1614610645576040517f08c379a000000000000000000000000000000000000000000000000000000000815260040161063c906138aa565b60405180910390fd5b60608060608573ffffffffffffffffffffffffffffffffffffffff166306fdde036040518163ffffffff1660e01b815260040160006040518083038186803b15801561069057600080fd5b505afa9250505080156106c657506040513d6000823e3d601f19601f820116820180604052508101906106c39190613225565b60015b6106e1576040518060200160405280600081525092506106e6565b809350505b8573ffffffffffffffffffffffffffffffffffffffff166395d89b416040518163ffffffff1660e01b815260040160006040518083038186803b15801561072c57600080fd5b505afa92505050801561076257506040513d6000823e3d601f19601f8201168201806040525081019061075f9190613225565b60015b61077d57604051806020016040528060008152509150610782565b809250505b8573ffffffffffffffffffffffffffffffffffffffff1663c87b56dd866040518263ffffffff1660e01b81526004016107bb919061396c565b60006040518083038186803b1580156107d357600080fd5b505afa92505050801561080957506040513d6000823e3d601f19601f820116820180604052508101906108069190613225565b60015b61082457604051806020016040528060008152509050610829565b809150505b60006040518061014001604052808781526020018973ffffffffffffffffffffffffffffffffffffffff1681526020018a81526020014281526020018873ffffffffffffffffffffffffffffffffffffffff1681526020013373ffffffffffffffffffffffffffffffffffffffff168152602001600160ff1681526020018581526020018481526020018381525090806001815401808255809150506001900390600052602060002090600902016000909190919091506000820151816000015560208201518160010160006101000a81548173ffffffffffffffffffffffffffffffffffffffff021916908373ffffffffffffffffffffffffffffffffffffffff160217905550604082015181600201556060820151816003015560808201518160040160006101000a81548173ffffffffffffffffffffffffffffffffffffffff021916908373ffffffffffffffffffffffffffffffffffffffff16021790555060a08201518160050160006101000a81548173ffffffffffffffffffffffffffffffffffffffff021916908373ffffffffffffffffffffffffffffffffffffffff16021790555060c08201518160050160146101000a81548160ff021916908360ff16021790555060e0820151816006019080519060200190610a10929190612e20565b50610100820151816007019080519060200190610a2e929190612e20565b50610120820151816008019080519060200190610a4c929190612e20565b50505060006001600080549050610a639190613c25565b905080600360008973ffffffffffffffffffffffffffffffffffffffff1673ffffffffffffffffffffffffffffffffffffffff168152602001908152602001600020600088815260200190815260200160002081905550600460003373ffffffffffffffffffffffffffffffffffffffff1673ffffffffffffffffffffffffffffffffffffffff1681526020019081526020016000208190806001815401808255809150506001900390600052602060002001600090919091909150558673ffffffffffffffffffffffffffffffffffffffff166323b872dd3330896040518463ffffffff1660e01b8152600401610b5d93929190613716565b600060405180830381600087803b158015610b7757600080fd5b505af1158015610b8b573d6000803e3d6000fd5b505050507f83b3a8754d705365b581ab63c329c1e55255a22aa78c67b5fcef378bfb2d9b998989898985604051610bc69594939291906139e7565b60405180910390a1505050505050505050565b600660009054906101000a900473ffffffffffffffffffffffffffffffffffffffff1673ffffffffffffffffffffffffffffffffffffffff163373ffffffffffffffffffffffffffffffffffffffff1614610c69576040517f08c379a0000000000000000000000000000000000000000000000000000000008152600401610c609061390a565b60405180910390fd5b80600760006101000a81548173ffffffffffffffffffffffffffffffffffffffff021916908373ffffffffffffffffffffffffffffffffffffffff16021790555050565b6000600360008473ffffffffffffffffffffffffffffffffffffffff1673ffffffffffffffffffffffffffffffffffffffff16815260200190815260200160002060008381526020019081526020016000205490503373ffffffffffffffffffffffffffffffffffffffff1660008281548110610d53577f4e487b7100000000000000000000000000000000000000000000000000000000600052603260045260246000fd5b906000526020600020906009020160050160009054906101000a900473ffffffffffffffffffffffffffffffffffffffff1673ffffffffffffffffffffffffffffffffffffffff1614610ddb576040517f08c379a0000000000000000000000000000000000000000000000000000000008152600401610dd29061388a565b60405180910390fd5b6000808281548110610e16577f4e487b7100000000000000000000000000000000000000000000000000000000600052603260045260246000fd5b906000526020600020906009020160050160149054906101000a900460ff1660ff161415610e79576040517f08c379a0000000000000000000000000000000000000000000000000000000008152600401610e709061384a565b60405180910390fd5b4260008281548110610eb4577f4e487b7100000000000000000000000000000000000000000000000000000000600052603260045260246000fd5b9060005260206000209060090201600301819055506000808281548110610f04577f4e487b7100000000000000000000000000000000000000000000000000000000600052603260045260246000fd5b906000526020600020906009020160050160146101000a81548160ff021916908360ff1602179055508273ffffffffffffffffffffffffffffffffffffffff166323b872dd3060008481548110610f84577f4e487b7100000000000000000000000000000000000000000000000000000000600052603260045260246000fd5b906000526020600020906009020160050160009054906101000a900473ffffffffffffffffffffffffffffffffffffffff16856040518463ffffffff1660e01b8152600401610fd593929190613716565b600060405180830381600087803b158015610fef57600080fd5b505af1158015611003573d6000803e3d6000fd5b505050507f6330f58b476cc7f9dd8db8130a0fbb49b291ebc32531eb36e9646f56ee20174b83838360405161103a93929190613776565b60405180910390a1505050565b600660009054906101000a900473ffffffffffffffffffffffffffffffffffffffff1673ffffffffffffffffffffffffffffffffffffffff163373ffffffffffffffffffffffffffffffffffffffff16146110d7576040517f08c379a00000000000000000000000000000000000000000000000000000000081526004016110ce9061390a565b60405180910390fd5b80600560006101000a81548173ffffffffffffffffffffffffffffffffffffffff021916908373ffffffffffffffffffffffffffffffffffffffff16021790555050565b6000600360008573ffffffffffffffffffffffffffffffffffffffff1673ffffffffffffffffffffffffffffffffffffffff16815260200190815260200160002060008481526020019081526020016000205490503373ffffffffffffffffffffffffffffffffffffffff16600082815481106111c1577f4e487b7100000000000000000000000000000000000000000000000000000000600052603260045260246000fd5b906000526020600020906009020160050160009054906101000a900473ffffffffffffffffffffffffffffffffffffffff1673ffffffffffffffffffffffffffffffffffffffff1614611249576040517f08c379a00000000000000000000000000000000000000000000000000000000081526004016112409061388a565b60405180910390fd5b6000808281548110611284577f4e487b7100000000000000000000000000000000000000000000000000000000600052603260045260246000fd5b906000526020600020906009020160050160149054906101000a900460ff1660ff1614156112e7576040517f08c379a00000000000000000000000000000000000000000000000000000000081526004016112de9061384a565b60405180910390fd5b600086111561134157856000828154811061132b577f4e487b7100000000000000000000000000000000000000000000000000000000600052603260045260246000fd5b9060005260206000209060090201600201819055505b600073ffffffffffffffffffffffffffffffffffffffff168573ffffffffffffffffffffffffffffffffffffffff16146114005784600082815481106113b0577f4e487b7100000000000000000000000000000000000000000000000000000000600052603260045260246000fd5b906000526020600020906009020160010160006101000a81548173ffffffffffffffffffffffffffffffffffffffff021916908373ffffffffffffffffffffffffffffffffffffffff1602179055505b426000828154811061143b577f4e487b7100000000000000000000000000000000000000000000000000000000600052603260045260246000fd5b906000526020600020906009020160030181905550816000828154811061148b577f4e487b7100000000000000000000000000000000000000000000000000000000600052603260045260246000fd5b906000526020600020906009020160050160146101000a81548160ff021916908360ff1602179055507f04211d838289b72af597bf28a4ccff5a30d6056f5fce2eddb127ab4ffea0963d8686868686866040516114ed96959493929190613a3a565b60405180910390a1505050505050565b600560009054906101000a900473ffffffffffffffffffffffffffffffffffffffff1673ffffffffffffffffffffffffffffffffffffffff163373ffffffffffffffffffffffffffffffffffffffff161461158d576040517f08c379a00000000000000000000000000000000000000000000000000000000081526004016115849061386a565b60405180910390fd5b6115df82600260008473ffffffffffffffffffffffffffffffffffffffff1673ffffffffffffffffffffffffffffffffffffffff16815260200190815260200160002054612db590919063ffffffff16565b600260008373ffffffffffffffffffffffffffffffffffffffff1673ffffffffffffffffffffffffffffffffffffffff168152602001908152602001600020819055507f291ce0b690061cb1b3f1111bf6500efe526983251fb0f863251ec3670d035fc48282604051611653929190613987565b60405180910390a15050565b60008080549050905090565b6000600560009054906101000a900473ffffffffffffffffffffffffffffffffffffffff1673ffffffffffffffffffffffffffffffffffffffff163373ffffffffffffffffffffffffffffffffffffffff16146116fd576040517f08c379a00000000000000000000000000000000000000000000000000000000081526004016116f49061386a565b60405180910390fd5b600260008373ffffffffffffffffffffffffffffffffffffffff1673ffffffffffffffffffffffffffffffffffffffff1681526020019081526020016000205490506000600260008473ffffffffffffffffffffffffffffffffffffffff1673ffffffffffffffffffffffffffffffffffffffff168152602001908152602001600020819055507f027aeacbc6fbfa7fe735ff8f14a600469ad1a3197ce1c8c8a159641cf68fe59282826040516117b592919061374d565b60405180910390a1919050565b600460205281600052604060002081815481106117de57600080fd5b90600052602060002001600091509150505481565b6000818154811061180357600080fd5b90600052602060002090600902016000915090508060000154908060010160009054906101000a900473ffffffffffffffffffffffffffffffffffffffff16908060020154908060030154908060040160009054906101000a900473ffffffffffffffffffffffffffffffffffffffff16908060050160009054906101000a900473ffffffffffffffffffffffffffffffffffffffff16908060050160149054906101000a900460ff16908060060180546118bd90613d55565b80601f01602080910402602001604051908101604052809291908181526020018280546118e990613d55565b80156119365780601f1061190b57610100808354040283529160200191611936565b820191906000526020600020905b81548152906001019060200180831161191957829003601f168201915b50505050509080600701805461194b90613d55565b80601f016020809104026020016040519081016040528092919081815260200182805461197790613d55565b80156119c45780601f10611999576101008083540402835291602001916119c4565b820191906000526020600020905b8154815290600101906020018083116119a757829003601f168201915b5050505050908060080180546119d990613d55565b80601f0160208091040260200160405190810160405280929190818152602001828054611a0590613d55565b8015611a525780601f10611a2757610100808354040283529160200191611a52565b820191906000526020600020905b815481529060010190602001808311611a3557829003601f168201915b505050505090508a565b6000600660009054906101000a900473ffffffffffffffffffffffffffffffffffffffff1673ffffffffffffffffffffffffffffffffffffffff163373ffffffffffffffffffffffffffffffffffffffff1614611aee576040517f08c379a0000000000000000000000000000000000000000000000000000000008152600401611ae59061390a565b60405180910390fd5b600760009054906101000a900473ffffffffffffffffffffffffffffffffffffffff1673ffffffffffffffffffffffffffffffffffffffff168373ffffffffffffffffffffffffffffffffffffffff1614611bd6578273ffffffffffffffffffffffffffffffffffffffff1663a9059cbb83866040518363ffffffff1660e01b8152600401611b7e9291906136ed565b602060405180830381600087803b158015611b9857600080fd5b505af1158015611bac573d6000803e3d6000fd5b505050506040513d601f19601f82011682018060405250810190611bd091906131fc565b50611c0e565b8173ffffffffffffffffffffffffffffffffffffffff166108fc859081150290604051600060405180830381858888f1935050505090505b7fb524bace85e4ce0f8da306e32f39263c5724780ca00b7551c051c8e3dc36adaf848484604051611c41939291906139b0565b60405180910390a19392505050565b60026020528060005260406000206000915090505481565b600660009054906101000a900473ffffffffffffffffffffffffffffffffffffffff1673ffffffffffffffffffffffffffffffffffffffff163373ffffffffffffffffffffffffffffffffffffffff1614611cf8576040517f08c379a0000000000000000000000000000000000000000000000000000000008152600401611cef9061390a565b60405180910390fd5b80600560006101000a81548173ffffffffffffffffffffffffffffffffffffffff021916908373ffffffffffffffffffffffffffffffffffffffff16021790555050565b6000806000600360008673ffffffffffffffffffffffffffffffffffffffff1673ffffffffffffffffffffffffffffffffffffffff16815260200190815260200160002060008581526020019081526020016000205481548110611dc9577f4e487b7100000000000000000000000000000000000000000000000000000000600052603260045260246000fd5b906000526020600020906009020160405180610140016040529081600082015481526020016001820160009054906101000a900473ffffffffffffffffffffffffffffffffffffffff1673ffffffffffffffffffffffffffffffffffffffff1673ffffffffffffffffffffffffffffffffffffffff16815260200160028201548152602001600382015481526020016004820160009054906101000a900473ffffffffffffffffffffffffffffffffffffffff1673ffffffffffffffffffffffffffffffffffffffff1673ffffffffffffffffffffffffffffffffffffffff1681526020016005820160009054906101000a900473ffffffffffffffffffffffffffffffffffffffff1673ffffffffffffffffffffffffffffffffffffffff1673ffffffffffffffffffffffffffffffffffffffff1681526020016005820160149054906101000a900460ff1660ff1660ff168152602001600682018054611f3090613d55565b80601f0160208091040260200160405190810160405280929190818152602001828054611f5c90613d55565b8015611fa95780601f10611f7e57610100808354040283529160200191611fa9565b820191906000526020600020905b815481529060010190602001808311611f8c57829003601f168201915b50505050508152602001600782018054611fc290613d55565b80601f0160208091040260200160405190810160405280929190818152602001828054611fee90613d55565b801561203b5780601f106120105761010080835404028352916020019161203b565b820191906000526020600020905b81548152906001019060200180831161201e57829003601f168201915b5050505050815260200160088201805461205490613d55565b80601f016020809104026020016040519081016040528092919081815260200182805461208090613d55565b80156120cd5780601f106120a2576101008083540402835291602001916120cd565b820191906000526020600020905b8154815290600101906020018083116120b057829003601f168201915b50505050508152505090508060400151341461211e576040517f08c379a0000000000000000000000000000000000000000000000000000000008152600401612115906138ea565b60405180910390fd5b600080600360008773ffffffffffffffffffffffffffffffffffffffff1673ffffffffffffffffffffffffffffffffffffffff168152602001908152602001600020600086815260200190815260200160002054815481106121a9577f4e487b7100000000000000000000000000000000000000000000000000000000600052603260045260246000fd5b906000526020600020906009020160050160146101000a81548160ff021916908360ff1602179055508373ffffffffffffffffffffffffffffffffffffffff166323b872dd3033866040518463ffffffff1660e01b815260040161220f93929190613716565b600060405180830381600087803b15801561222957600080fd5b505af115801561223d573d6000803e3d6000fd5b505050508060a0015173ffffffffffffffffffffffffffffffffffffffff166108fc82604001519081150290604051600060405180830381858888f1935050505091507fc220cf2a12d6492e23ed1141c55018997799699d009b00ebd5a4874c60f5c31e8484600360008873ffffffffffffffffffffffffffffffffffffffff1673ffffffffffffffffffffffffffffffffffffffff168152602001908152602001600020600087815260200190815260200160002054846040015160405161230994939291906137ad565b60405180910390a15092915050565b6003602052816000526040600020602052806000526040600020600091509150505481565b612345612ea6565b6000600360008573ffffffffffffffffffffffffffffffffffffffff1673ffffffffffffffffffffffffffffffffffffffff168152602001908152602001600020600084815260200190815260200160002054905060008082815481106123d5577f4e487b7100000000000000000000000000000000000000000000000000000000600052603260045260246000fd5b906000526020600020906009020160405180610140016040529081600082015481526020016001820160009054906101000a900473ffffffffffffffffffffffffffffffffffffffff1673ffffffffffffffffffffffffffffffffffffffff1673ffffffffffffffffffffffffffffffffffffffff16815260200160028201548152602001600382015481526020016004820160009054906101000a900473ffffffffffffffffffffffffffffffffffffffff1673ffffffffffffffffffffffffffffffffffffffff1673ffffffffffffffffffffffffffffffffffffffff1681526020016005820160009054906101000a900473ffffffffffffffffffffffffffffffffffffffff1673ffffffffffffffffffffffffffffffffffffffff1673ffffffffffffffffffffffffffffffffffffffff1681526020016005820160149054906101000a900460ff1660ff1660ff16815260200160068201805461253c90613d55565b80601f016020809104026020016040519081016040528092919081815260200182805461256890613d55565b80156125b55780601f1061258a576101008083540402835291602001916125b5565b820191906000526020600020905b81548152906001019060200180831161259857829003601f168201915b505050505081526020016007820180546125ce90613d55565b80601f01602080910402602001604051908101604052809291908181526020018280546125fa90613d55565b80156126475780601f1061261c57610100808354040283529160200191612647565b820191906000526020600020905b81548152906001019060200180831161262a57829003601f168201915b5050505050815260200160088201805461266090613d55565b80601f016020809104026020016040519081016040528092919081815260200182805461268c90613d55565b80156126d95780601f106126ae576101008083540402835291602001916126d9565b820191906000526020600020905b8154815290600101906020018083116126bc57829003601f168201915b5050505050815250509050809250505092915050565b600080600360008773ffffffffffffffffffffffffffffffffffffffff1673ffffffffffffffffffffffffffffffffffffffff1681526020019081526020016000206000868152602001908152602001600020548154811061277a577f4e487b7100000000000000000000000000000000000000000000000000000000600052603260045260246000fd5b906000526020600020906009020160405180610140016040529081600082015481526020016001820160009054906101000a900473ffffffffffffffffffffffffffffffffffffffff1673ffffffffffffffffffffffffffffffffffffffff1673ffffffffffffffffffffffffffffffffffffffff16815260200160028201548152602001600382015481526020016004820160009054906101000a900473ffffffffffffffffffffffffffffffffffffffff1673ffffffffffffffffffffffffffffffffffffffff1673ffffffffffffffffffffffffffffffffffffffff1681526020016005820160009054906101000a900473ffffffffffffffffffffffffffffffffffffffff1673ffffffffffffffffffffffffffffffffffffffff1673ffffffffffffffffffffffffffffffffffffffff1681526020016005820160149054906101000a900460ff1660ff1660ff1681526020016006820180546128e190613d55565b80601f016020809104026020016040519081016040528092919081815260200182805461290d90613d55565b801561295a5780601f1061292f5761010080835404028352916020019161295a565b820191906000526020600020905b81548152906001019060200180831161293d57829003601f168201915b5050505050815260200160078201805461297390613d55565b80601f016020809104026020016040519081016040528092919081815260200182805461299f90613d55565b80156129ec5780601f106129c1576101008083540402835291602001916129ec565b820191906000526020600020905b8154815290600101906020018083116129cf57829003601f168201915b50505050508152602001600882018054612a0590613d55565b80601f0160208091040260200160405190810160405280929190818152602001828054612a3190613d55565b8015612a7e5780601f10612a5357610100808354040283529160200191612a7e565b820191906000526020600020905b815481529060010190602001808311612a6157829003601f168201915b5050505050815250509050612b1681604001516040518060400160405280601981526020017f496e737563636966696369656e74204b534d732066756e647300000000000000815250600260008773ffffffffffffffffffffffffffffffffffffffff1673ffffffffffffffffffffffffffffffffffffffff16815260200190815260200160002054612dcb9092919063ffffffff16565b600260008573ffffffffffffffffffffffffffffffffffffffff1673ffffffffffffffffffffffffffffffffffffffff16815260200190815260200160002081905550612bb38160400151600260008460a0015173ffffffffffffffffffffffffffffffffffffffff1673ffffffffffffffffffffffffffffffffffffffff16815260200190815260200160002054612db590919063ffffffff16565b600260008360a0015173ffffffffffffffffffffffffffffffffffffffff1673ffffffffffffffffffffffffffffffffffffffff16815260200190815260200160002081905550600080600360008873ffffffffffffffffffffffffffffffffffffffff1673ffffffffffffffffffffffffffffffffffffffff16815260200190815260200160002060008781526020019081526020016000205481548110612c85577f4e487b7100000000000000000000000000000000000000000000000000000000600052603260045260246000fd5b906000526020600020906009020160050160146101000a81548160ff021916908360ff1602179055508473ffffffffffffffffffffffffffffffffffffffff166323b872dd3084876040518463ffffffff1660e01b8152600401612ceb93929190613716565b600060405180830381600087803b158015612d0557600080fd5b505af1158015612d19573d6000803e3d6000fd5b505050507f68bdd3548f3f05742b376651745ca73472eb18f2230f64b893d7a48e575eb0148585600360008973ffffffffffffffffffffffffffffffffffffffff1673ffffffffffffffffffffffffffffffffffffffff1681526020019081526020016000206000888152602001908152602001600020548460400151604051612da694939291906137ad565b60405180910390a15050505050565b60008183612dc39190613bcf565b905092915050565b6000838311158290612e13576040517f08c379a0000000000000000000000000000000000000000000000000000000008152600401612e0a9190613828565b60405180910390fd5b5082840390509392505050565b828054612e2c90613d55565b90600052602060002090601f016020900481019282612e4e5760008555612e95565b82601f10612e6757805160ff1916838001178555612e95565b82800160010185558215612e95579182015b82811115612e94578251825591602001919060010190612e79565b5b509050612ea29190612f3e565b5090565b60405180610140016040528060008152602001600073ffffffffffffffffffffffffffffffffffffffff1681526020016000815260200160008152602001600073ffffffffffffffffffffffffffffffffffffffff168152602001600073ffffffffffffffffffffffffffffffffffffffff168152602001600060ff1681526020016060815260200160608152602001606081525090565b5b80821115612f57576000816000905550600101612f3f565b5090565b6000612f6e612f6984613b71565b613b4c565b905082815260208101848484011115612f8657600080fd5b612f91848285613d22565b509392505050565b600081359050612fa881614010565b92915050565b600081519050612fbd81614010565b92915050565b600081359050612fd281614027565b92915050565b600081519050612fe78161403e565b92915050565b60008083601f840112612fff57600080fd5b8235905067ffffffffffffffff81111561301857600080fd5b60208301915083600182028301111561303057600080fd5b9250929050565b600082601f83011261304857600080fd5b8151613058848260208601612f5b565b91505092915050565b60008135905061307081614055565b92915050565b6000813590506130858161406c565b92915050565b60006020828403121561309d57600080fd5b60006130ab84828501612f99565b91505092915050565b6000602082840312156130c657600080fd5b60006130d484828501612fae565b91505092915050565b6000806000806000608086880312156130f557600080fd5b600061310388828901612f99565b955050602061311488828901612f99565b945050604061312588828901613061565b935050606086013567ffffffffffffffff81111561314257600080fd5b61314e88828901612fed565b92509250509295509295909350565b6000806040838503121561317057600080fd5b600061317e85828601612f99565b925050602061318f85828601613061565b9150509250929050565b600080600080608085870312156131af57600080fd5b60006131bd87828801612f99565b94505060206131ce87828801613061565b93505060406131df87828801612f99565b92505060606131f087828801612f99565b91505092959194509250565b60006020828403121561320e57600080fd5b600061321c84828501612fd8565b91505092915050565b60006020828403121561323757600080fd5b600082015167ffffffffffffffff81111561325157600080fd5b61325d84828501613037565b91505092915050565b60006020828403121561327857600080fd5b600061328684828501613061565b91505092915050565b600080604083850312156132a257600080fd5b60006132b085828601613061565b92505060206132c185828601612f99565b9150509250929050565b6000806000606084860312156132e057600080fd5b60006132ee86828701613061565b93505060206132ff86828701612f99565b925050604061331086828701612fc3565b9150509250925092565b6000806000806080858703121561333057600080fd5b600061333e87828801613061565b945050602061334f87828801612f99565b935050604061336087828801612f99565b925050606061337187828801613061565b91505092959194509250565b600080600080600060a0868803121561339557600080fd5b60006133a388828901613061565b95505060206133b488828901612f99565b94505060406133c588828901612f99565b93505060606133d688828901613061565b92505060806133e788828901613076565b9150509295509295909350565b6133fd81613cec565b82525050565b61340c81613c59565b82525050565b61341b81613c59565b82525050565b61342a81613c7d565b82525050565b61343981613c89565b82525050565b600061344a82613ba2565b6134548185613bad565b9350613464818560208601613d22565b61346d81613e45565b840191505092915050565b600061348382613ba2565b61348d8185613bbe565b935061349d818560208601613d22565b6134a681613e45565b840191505092915050565b60006134be601283613bbe565b91506134c982613e56565b602082019050919050565b60006134e1600f83613bbe565b91506134ec82613e7f565b602082019050919050565b6000613504601d83613bbe565b915061350f82613ea8565b602082019050919050565b6000613527601d83613bbe565b915061353282613ed1565b602082019050919050565b600061354a604183613bbe565b915061355582613efa565b606082019050919050565b600061356d602d83613bbe565b915061357882613f6f565b604082019050919050565b6000613590600e83613bbe565b915061359b82613fbe565b602082019050919050565b60006135b3601083613bbe565b91506135be82613fe7565b602082019050919050565b6000610140830160008301516135e260008601826136b1565b5060208301516135f56020860182613403565b50604083015161360860408601826136b1565b50606083015161361b60608601826136b1565b50608083015161362e6080860182613403565b5060a083015161364160a0860182613403565b5060c083015161365460c08601826136cf565b5060e083015184820360e086015261366c828261343f565b915050610100830151848203610100860152613688828261343f565b9150506101208301518482036101208601526136a4828261343f565b9150508091505092915050565b6136ba81613cd5565b82525050565b6136c981613cd5565b82525050565b6136d881613cdf565b82525050565b6136e781613cdf565b82525050565b600060408201905061370260008301856133f4565b61370f60208301846136c0565b9392505050565b600060608201905061372b6000830186613412565b6137386020830185613412565b61374560408301846136c0565b949350505050565b60006040820190506137626000830185613412565b61376f60208301846136c0565b9392505050565b600060608201905061378b6000830186613412565b61379860208301856136c0565b6137a560408301846136c0565b949350505050565b60006080820190506137c26000830187613412565b6137cf60208301866136c0565b6137dc60408301856136c0565b6137e960608301846136c0565b95945050505050565b60006020820190506138076000830184613421565b92915050565b60006020820190506138226000830184613430565b92915050565b600060208201905081810360008301526138428184613478565b905092915050565b60006020820190508181036000830152613863816134b1565b9050919050565b60006020820190508181036000830152613883816134d4565b9050919050565b600060208201905081810360008301526138a3816134f7565b9050919050565b600060208201905081810360008301526138c38161351a565b9050919050565b600060208201905081810360008301526138e38161353d565b9050919050565b6000602082019050818103600083015261390381613560565b9050919050565b6000602082019050818103600083015261392381613583565b9050919050565b60006020820190508181036000830152613943816135a6565b9050919050565b6000602082019050818103600083015261396481846135c9565b905092915050565b600060208201905061398160008301846136c0565b92915050565b600060408201905061399c60008301856136c0565b6139a96020830184613412565b9392505050565b60006060820190506139c560008301866136c0565b6139d26020830185613412565b6139df60408301846133f4565b949350505050565b600060a0820190506139fc60008301886136c0565b613a096020830187613412565b613a166040830186613412565b613a2360608301856136c0565b613a3060808301846136c0565b9695505050505050565b600060c082019050613a4f60008301896136c0565b613a5c6020830188613412565b613a696040830187613412565b613a7660608301866136c0565b613a8360808301856136de565b613a9060a08301846136c0565b979650505050505050565b600061014082019050613ab1600083018d6136c0565b613abe602083018c613412565b613acb604083018b6136c0565b613ad8606083018a6136c0565b613ae56080830189613412565b613af260a0830188613412565b613aff60c08301876136de565b81810360e0830152613b118186613478565b9050818103610100830152613b268185613478565b9050818103610120830152613b3b8184613478565b90509b9a5050505050505050505050565b6000613b56613b67565b9050613b628282613d87565b919050565b6000604051905090565b600067ffffffffffffffff821115613b8c57613b8b613e16565b5b613b9582613e45565b9050602081019050919050565b600081519050919050565b600082825260208201905092915050565b600082825260208201905092915050565b6000613bda82613cd5565b9150613be583613cd5565b9250827fffffffffffffffffffffffffffffffffffffffffffffffffffffffffffffffff03821115613c1a57613c19613db8565b5b828201905092915050565b6000613c3082613cd5565b9150613c3b83613cd5565b925082821015613c4e57613c4d613db8565b5b828203905092915050565b6000613c6482613cb5565b9050919050565b6000613c7682613cb5565b9050919050565b60008115159050919050565b60007fffffffff0000000000000000000000000000000000000000000000000000000082169050919050565b600073ffffffffffffffffffffffffffffffffffffffff82169050919050565b6000819050919050565b600060ff82169050919050565b6000613cf782613cfe565b9050919050565b6000613d0982613d10565b9050919050565b6000613d1b82613cb5565b9050919050565b60005b83811015613d40578082015181840152602081019050613d25565b83811115613d4f576000848401525b50505050565b60006002820490506001821680613d6d57607f821691505b60208210811415613d8157613d80613de7565b5b50919050565b613d9082613e45565b810181811067ffffffffffffffff82111715613daf57613dae613e16565b5b80604052505050565b7f4e487b7100000000000000000000000000000000000000000000000000000000600052601160045260246000fd5b7f4e487b7100000000000000000000000000000000000000000000000000000000600052602260045260246000fd5b7f4e487b7100000000000000000000000000000000000000000000000000000000600052604160045260246000fd5b6000601f19601f8301169050919050565b7f546869732061736b20697320636c6f7365640000000000000000000000000000600082015250565b7f4f6e6c7920657363726f772063616e0000000000000000000000000000000000600082015250565b7f4f6e6c7920746f6b656e206f776e65722063616e20656469742061736b000000600082015250565b7f4f6e6c7920746f6b656e206f776e65722063616e206d616b652061736b000000600082015250565b7f43616e277420616363657074207061796d656e7420776974686f757420636f6c60008201527f6c656374696f6e20616e64204944732c20757365206441707020746f2073656e60208201527f6400000000000000000000000000000000000000000000000000000000000000604082015250565b7f4e6f7420726967687420616d6f756e742073656e742c206861766520746f206260008201527f6520657175616c20707269636500000000000000000000000000000000000000602082015250565b7f4f6e6c79206f776e65722063616e000000000000000000000000000000000000600082015250565b7f4e6f20737563682066756e6374696f6e00000000000000000000000000000000600082015250565b61401981613c59565b811461402457600080fd5b50565b61403081613c6b565b811461403b57600080fd5b50565b61404781613c7d565b811461405257600080fd5b50565b61405e81613cd5565b811461406957600080fd5b50565b61407581613cdf565b811461408057600080fd5b5056fea2646970667358221220890578747aaeea7b95fb3ea4a6653fac314fe903c5ce54b6503bb8fc7b6b3a0264736f6c63430008040033",
  "immutableReferences": {},
  "source": "// SPDX-License-Identifier:  Apache License\npragma solidity >= 0.8.0;\nimport \"./interfaces/IERC721ext.sol\";\nimport \"@openzeppelin/contracts/token/ERC721/IERC721Receiver.sol\";\nimport \"@openzeppelin/contracts/utils/math/SafeMath.sol\";\nimport \"@openzeppelin/contracts/token/ERC20/IERC20.sol\";\n\n\ncontract MarketPlace is IERC721Receiver {\n    using SafeMath for uint;\n    struct Order {\n        \n        uint256 idNFT;\n        address currencyCode; // UNIQ tokens as address address (1); wKSM \n        uint256 price;\n        uint256 time;\n        address idCollection;\n        address ownerAddr;\n        uint8 flagActive;\n        string name;\n        string symbol;\n        string tokenURI;        \n    }\n    Order[] public  orders;\n    uint test;\n    mapping (address => uint256) public balanceKSM;  //  [ownerAddr][currency] => [KSMs]\n    mapping (address => mapping (uint256 => uint256)) public  asks ; // [buyer][idCollection][idNFT] => idorder\n\n    mapping (address => uint[]) public asksbySeller; // [addressSeller] =>idorder\n\n    address escrow;\n    address owner;\n    address nativecoin;\n\n    constructor (address _escrow) {\n        escrow = _escrow;\n        owner = msg.sender;\n\n         orders.push(Order(        \n                    0,\n                    address(0),\n                    0,\n                    0,\n                    address(0),\n                    address(0),\n                    0, \"\",\"\",\"\"));\n    }\n\n   function setowner  (address _newEscrow) public onlyOwner {\n        escrow = _newEscrow;\n    }\n\n    function setEscrow  (address _newEscrow) public onlyOwner {\n        escrow = _newEscrow;\n    }\n\n    function setNativeCoin  (address _coin) public onlyOwner {\n        nativecoin = _coin;\n    }\n\n    \n\n    modifier onlyEscrow () {\n        require(msg.sender == escrow, \"Only escrow can\");\n        _;\n    }\n\n    modifier onlyOwner () {\n        require(msg.sender == owner, \"Only owner can\");\n        _;\n    }\n\n    /**\n    * Make bids (orders) to sell NFTs \n    */\n    \n    receive  () external payable {\n        revert (\"Can't accept payment without collection and IDs, use dApp to send\");\n    }\n    fallback () external payable {\n        revert (\"No such function\");\n    }\n\n    event AddedAsk (uint256 _price, \n                    address  _currencyCode, \n                    address _idCollection, \n                    uint256 _idNFT,\n                    uint256 orderId\n                  );\n    event EditedAsk (uint256 _price, \n                    address  _currencyCode, \n                    address _idCollection, \n                    uint256 _idNFT,\n                    uint8  _active,\n                    uint orderId);\n\n    event  CanceledAsk (address _idCollection, \n                        uint256 _idNFT, \n                        uint orderId\n                        );\n\n    event DepositedKSM (uint256 _amount,  address _sender);\n\n    event BoughtNFT4KSM (address _idCollection, uint256 _idNFT, uint orderID, uint orderPrice );\n\n    event BoughtNFT (address _idCollection, uint256 _idNFT, uint orderID, uint orderPrice );\n\n    event WithdrawnAllKSM (address _sender, uint256 balance); \n\n    event Withdrawn (uint256 _amount, address _currencyCode, address _sender);\n    \n    function addAsk (uint256 _price, \n                    address  _currencyCode, \n                    address _idCollection, \n                    uint256 _idNFT\n                  ) public  { //\n        address ownerNFT = IERC721ext(_idCollection).ownerOf(_idNFT);\n        require (ownerNFT == msg.sender, \"Only token owner can make ask\");\n        string memory nameNFT;\n        string memory symbolNFT;\n        string memory uriNFT;\n        try IERC721ext(_idCollection).name() returns (string memory name_) {\n            nameNFT = name_;\n        }\n        catch {\n            nameNFT=\"\";\n        }   \n        try IERC721ext(_idCollection).symbol() returns (string memory symbol_) {\n            symbolNFT = symbol_;\n        }\n        catch {\n            symbolNFT=\"\";\n        }  \n        try IERC721ext(_idCollection).tokenURI(_idNFT) returns (string memory uri_) {\n            uriNFT = uri_;\n        }\n        catch {\n            uriNFT=\"\";\n        }        \n        orders.push(Order(        \n                    _idNFT,\n                    _currencyCode,\n                    _price,\n                    block.timestamp,\n                    _idCollection,\n                    msg.sender,\n                    1, // 1 = is active\n                    nameNFT, \n                    symbolNFT,\n                    uriNFT\n             ));\n            \n            uint orderId = orders.length-1;\n            asks[_idCollection][_idNFT] = orderId;\n            asksbySeller[msg.sender].push(orderId);\n            IERC721ext(_idCollection).transferFrom(msg.sender, address(this), _idNFT);\n            emit AddedAsk(_price, _currencyCode, _idCollection, _idNFT, orderId);     \n    }\n\n    function editAsk (uint256 _price, \n                    address  _currencyCode, \n                    address _idCollection, \n                    uint256 _idNFT,\n                    uint8  _active) public {\n        \n\n        uint orderID =  asks[_idCollection][_idNFT];\n\n        require (orders[orderID].ownerAddr == msg.sender, \"Only token owner can edit ask\");\n        require (orders[orderID].flagActive != 0, \"This ask is closed\");\n        if (_price> 0 ) {\n            orders[orderID].price = _price ;  \n        }\n        \n        if (_currencyCode != address(0) ) {\n            orders[orderID].currencyCode = _currencyCode ;  \n        }\n\n        orders[orderID].time = block.timestamp;\n        orders[orderID].flagActive = _active;\n        \n        emit EditedAsk(_price, _currencyCode, _idCollection, _idNFT, _active, orderID);\n        }\n        \n\n    function cancelAsk (address _idCollection, \n                        uint256 _idNFT\n                        ) public {\n\n        uint orderID =  asks[_idCollection][_idNFT];\n\n        require (orders[orderID].ownerAddr == msg.sender, \"Only token owner can edit ask\");\n        require (orders[orderID].flagActive != 0, \"This ask is closed\");\n\n        orders[orderID].time = block.timestamp;\n        orders[orderID].flagActive = 0;\n        IERC721ext(_idCollection).transferFrom(address(this),orders[orderID].ownerAddr, _idNFT);\n        emit CanceledAsk(_idCollection, _idNFT, orderID);\n        }\n\n\n    function depositKSM (uint256 _amount,  address _sender) public onlyEscrow {\n\n        balanceKSM[_sender]= balanceKSM[_sender].add(_amount);\n        emit DepositedKSM(_amount, _sender);\n    }\n\n    function buyKSM (address _idCollection, uint256 _idNFT, address _buyer, address _receiver ) public {\n        \n        Order memory order = orders[ asks[_idCollection][_idNFT]];\n        //1. reduce balance\n        balanceKSM[_buyer] = balanceKSM[_buyer].sub( order.price, \"Insuccificient KSMs funds\");\n        balanceKSM[order.ownerAddr] = balanceKSM[order.ownerAddr].add( order.price);\n        // 2. close order\n        orders[ asks[_idCollection][_idNFT]].flagActive = 0;\n        // 3. transfer NFT to buyer\n        IERC721ext(_idCollection).transferFrom(address(this), _receiver, _idNFT);\n        emit BoughtNFT4KSM(_idCollection, _idNFT, asks[_idCollection][_idNFT], order.price);\n\n    }\n    function buy (address _idCollection, uint256 _idNFT ) public payable returns (bool result) { //buing for UNQ like as ethers \n        \n        Order memory order = orders[asks[_idCollection][_idNFT]]; \n        //1. check sent amount and send to seller\n        require (msg.value == order.price, \"Not right amount sent, have to be equal price\" );     \n        // 2. close order\n        orders[ asks[_idCollection][_idNFT]].flagActive = 0;\n        \n        // 3. transfer NFT to buyer\n        IERC721ext(_idCollection).transferFrom(address(this), msg.sender, _idNFT);\n        //uint balance  = address(this).balance;\n        result = payable(order.ownerAddr).send (order.price); \n        emit BoughtNFT(_idCollection, _idNFT, asks[_idCollection][_idNFT], order.price);\n        \n    }\n\n/* \n    function buyOther (address _idCollection, uint256 _idNFT, address _currencyCode, uint _amount ) public  { //buy for sny token if seller wants\n        \n        Order memory order = orders[ asks[_idCollection][_idNFT]];\n        //1. check sent amount and transfer from buyer to seller\n        require (order.price == _amount && order.currencyCode == _currencyCode, \"Not right amount or currency sent, have to be equal currency and price\" );\n        // !!! transfer have to be approved to marketplace!\n        IERC20(order.currencyCode).transferFrom(msg.sender, address(this), order.price); //to not disclojure buyer's address \n        IERC20(order.currencyCode).transfer(order.ownerAddr, order.price);\n        // 2. close order\n        orders[ asks[_idCollection][_idNFT]].flagActive = 0;\n        // 3. transfer NFT to buyer\n        IERC721ext(_idCollection).transferFrom(address(this), msg.sender, _idNFT);\n\n\n    }\n */\n\n    function withdrawAllKSM (address _sender) public  onlyEscrow returns (uint lastBalance ){\n        lastBalance = balanceKSM[_sender];\n        balanceKSM[_sender] =0;\n        emit WithdrawnAllKSM(_sender, lastBalance);\n    }\n\n    function withdraw (uint256 _amount, address _currencyCode, address payable _sender) public  onlyOwner returns (bool result ){\n        \n        if (_currencyCode != nativecoin ) { //erc20 compat. tokens on UNIQUE chain\n            // uint balance = IERC20(_currencyCode).balanceOf(address(this));\n            IERC20(_currencyCode).transfer(_sender, _amount);\n        } else {\n            // uint balance  = address(this).balance;\n\n            result =  (_sender).send(_amount); // for UNQ like as ethers \n        }\n        emit Withdrawn(_amount, _currencyCode, _sender);\n        return result;\n\n    }\n   // event GettedOrder(uint , Order);\n    function getOrder (address _idCollection, uint256 _idNFT) public view returns (Order memory) {\n        uint orderId = asks[_idCollection][_idNFT];\n        Order memory order = orders[orderId];\n //       emit GettedOrder (orderId, order);\n        return order;\n    }\n\n    function getOrdersLen () public view returns (uint) {\n        return orders.length;\n    }\n\n    function onERC721Received(address operator, address from, uint256 tokenId, bytes calldata data)  public override pure returns(bytes4) {\n            return bytes4(keccak256(\"onERC721Received(address,address,uint256,bytes)\"));\n        }\n}",
  "sourcePath": "/mnt/512-2/Uniq/marketplace_backend/contracts/MarketPlace.sol",
  "compiler": {
    "name": "solc",
    "version": "0.8.4+commit.c7e474f2.Emscripten.clang"
  },
  "schemaVersion": "3.4.3",
  "updatedAt": "2021-10-22T08:00:52.298Z",
  "networkType": "ethereum",
  "devdoc": {
    "kind": "dev",
    "methods": {
      "onERC721Received(address,address,uint256,bytes)": {
        "details": "Whenever an {IERC721} `tokenId` token is transferred to this contract via {IERC721-safeTransferFrom} by `operator` from `from`, this function is called. It must return its Solidity selector to confirm the token transfer. If any other value is returned or the interface is not implemented by the recipient, the transfer will be reverted. The selector can be obtained in Solidity with `IERC721.onERC721Received.selector`."
      }
    },
    "version": 1
  },
  "userdoc": {
    "kind": "user",
    "methods": {},
    "version": 1
  }
}